{
  "_format": "hh-sol-artifact-1",
  "contractName": "ERC20Staking",
  "sourceName": "contracts/ERC20Staking.sol",
  "abi": [
    {
      "inputs": [
        {
          "internalType": "address",
          "name": "tokenAddress_",
          "type": "address"
        },
        {
          "internalType": "address",
          "name": "feeReceiver_",
          "type": "address"
        }
      ],
      "stateMutability": "nonpayable",
      "type": "constructor"
    },
    {
      "anonymous": false,
      "inputs": [
        {
          "indexed": false,
          "internalType": "address",
          "name": "delegator",
          "type": "address"
        },
        {
          "indexed": false,
          "internalType": "uint256",
          "name": "roundIndex",
          "type": "uint256"
        },
        {
          "indexed": false,
          "internalType": "uint256",
          "name": "tokenId",
          "type": "uint256"
        },
        {
          "indexed": false,
          "internalType": "uint256",
          "name": "amount",
          "type": "uint256"
        }
      ],
      "name": "Claim",
      "type": "event"
    },
    {
      "anonymous": false,
      "inputs": [
        {
          "indexed": false,
          "internalType": "address",
          "name": "delegator",
          "type": "address"
        },
        {
          "indexed": false,
          "internalType": "uint256",
          "name": "roundIndex",
          "type": "uint256"
        },
        {
          "indexed": false,
          "internalType": "uint256",
          "name": "amount",
          "type": "uint256"
        }
      ],
      "name": "ClaimRound",
      "type": "event"
    },
    {
      "anonymous": false,
      "inputs": [
        {
          "indexed": false,
          "internalType": "uint256",
          "name": "startTime",
          "type": "uint256"
        },
        {
          "indexed": false,
          "internalType": "uint256",
          "name": "duration",
          "type": "uint256"
        },
        {
          "indexed": false,
          "internalType": "uint256",
          "name": "endTime",
          "type": "uint256"
        },
        {
          "indexed": false,
          "internalType": "uint256",
          "name": "amountAllocated",
          "type": "uint256"
        },
        {
          "indexed": false,
          "internalType": "uint256",
          "name": "amountClaimed",
          "type": "uint256"
        }
      ],
      "name": "CreateRound",
      "type": "event"
    },
    {
      "anonymous": false,
      "inputs": [
        {
          "indexed": false,
          "internalType": "address",
          "name": "token",
          "type": "address"
        },
        {
          "indexed": false,
          "internalType": "address",
          "name": "feeReceiver",
          "type": "address"
        }
      ],
      "name": "DeployContract",
      "type": "event"
    },
    {
      "anonymous": false,
      "inputs": [
        {
          "indexed": false,
          "internalType": "address",
          "name": "delegator",
          "type": "address"
        },
        {
          "indexed": false,
          "internalType": "uint256",
          "name": "amount",
          "type": "uint256"
        },
        {
          "indexed": false,
          "internalType": "uint256",
          "name": "depositTime",
          "type": "uint256"
        },
        {
          "indexed": false,
          "internalType": "uint256",
          "name": "withdrawlTime",
          "type": "uint256"
        }
      ],
      "name": "DepositERC20",
      "type": "event"
    },
    {
      "anonymous": false,
      "inputs": [
        {
          "indexed": false,
          "internalType": "uint256",
          "name": "roundIndex",
          "type": "uint256"
        },
        {
          "indexed": false,
          "internalType": "uint256",
          "name": "amount",
          "type": "uint256"
        }
      ],
      "name": "DepositFunds",
      "type": "event"
    },
    {
      "anonymous": false,
      "inputs": [
        {
          "indexed": true,
          "internalType": "address",
          "name": "previousOwner",
          "type": "address"
        },
        {
          "indexed": true,
          "internalType": "address",
          "name": "newOwner",
          "type": "address"
        }
      ],
      "name": "OwnershipTransferred",
      "type": "event"
    },
    {
      "anonymous": false,
      "inputs": [
        {
          "indexed": false,
          "internalType": "uint256",
          "name": "depositIndex",
          "type": "uint256"
        }
      ],
      "name": "RescuedDeposit",
      "type": "event"
    },
    {
      "anonymous": false,
      "inputs": [
        {
          "indexed": false,
          "internalType": "uint256",
          "name": "amount",
          "type": "uint256"
        }
      ],
      "name": "RescuedETH",
      "type": "event"
    },
    {
      "anonymous": false,
      "inputs": [
        {
          "indexed": true,
          "internalType": "bytes32",
          "name": "role",
          "type": "bytes32"
        },
        {
          "indexed": true,
          "internalType": "bytes32",
          "name": "previousAdminRole",
          "type": "bytes32"
        },
        {
          "indexed": true,
          "internalType": "bytes32",
          "name": "newAdminRole",
          "type": "bytes32"
        }
      ],
      "name": "RoleAdminChanged",
      "type": "event"
    },
    {
      "anonymous": false,
      "inputs": [
        {
          "indexed": true,
          "internalType": "bytes32",
          "name": "role",
          "type": "bytes32"
        },
        {
          "indexed": true,
          "internalType": "address",
          "name": "account",
          "type": "address"
        },
        {
          "indexed": true,
          "internalType": "address",
          "name": "sender",
          "type": "address"
        }
      ],
      "name": "RoleGranted",
      "type": "event"
    },
    {
      "anonymous": false,
      "inputs": [
        {
          "indexed": true,
          "internalType": "bytes32",
          "name": "role",
          "type": "bytes32"
        },
        {
          "indexed": true,
          "internalType": "address",
          "name": "account",
          "type": "address"
        },
        {
          "indexed": true,
          "internalType": "address",
          "name": "sender",
          "type": "address"
        }
      ],
      "name": "RoleRevoked",
      "type": "event"
    },
    {
      "anonymous": false,
      "inputs": [
        {
          "indexed": false,
          "internalType": "uint256",
          "name": "cliff",
          "type": "uint256"
        }
      ],
      "name": "SetFeeCliff",
      "type": "event"
    },
    {
      "anonymous": false,
      "inputs": [
        {
          "indexed": false,
          "internalType": "uint256",
          "name": "rate",
          "type": "uint256"
        }
      ],
      "name": "SetFeeRate",
      "type": "event"
    },
    {
      "anonymous": false,
      "inputs": [
        {
          "indexed": false,
          "internalType": "address",
          "name": "receiver",
          "type": "address"
        }
      ],
      "name": "SetFeeReceiver",
      "type": "event"
    },
    {
      "anonymous": false,
      "inputs": [
        {
          "indexed": false,
          "internalType": "uint256",
          "name": "startTime",
          "type": "uint256"
        },
        {
          "indexed": false,
          "internalType": "uint256",
          "name": "duration",
          "type": "uint256"
        },
        {
          "indexed": false,
          "internalType": "uint256",
          "name": "endTime",
          "type": "uint256"
        },
        {
          "indexed": false,
          "internalType": "uint256",
          "name": "amountAllocated",
          "type": "uint256"
        },
        {
          "indexed": false,
          "internalType": "uint256",
          "name": "amountClaimed",
          "type": "uint256"
        }
      ],
      "name": "UpdateRound",
      "type": "event"
    },
    {
      "anonymous": false,
      "inputs": [
        {
          "indexed": false,
          "internalType": "address",
          "name": "sender",
          "type": "address"
        },
        {
          "indexed": false,
          "internalType": "uint256",
          "name": "amount",
          "type": "uint256"
        }
      ],
      "name": "WithdrawERC20",
      "type": "event"
    },
    {
      "inputs": [],
      "name": "DEFAULT_ADMIN_ROLE",
      "outputs": [
        {
          "internalType": "bytes32",
          "name": "",
          "type": "bytes32"
        }
      ],
      "stateMutability": "view",
      "type": "function"
    },
    {
      "inputs": [],
      "name": "MAX_FEE_CLIFF",
      "outputs": [
        {
          "internalType": "uint256",
          "name": "",
          "type": "uint256"
        }
      ],
      "stateMutability": "view",
      "type": "function"
    },
    {
      "inputs": [],
      "name": "MAX_FEE_RATE",
      "outputs": [
        {
          "internalType": "uint256",
          "name": "",
          "type": "uint256"
        }
      ],
      "stateMutability": "view",
      "type": "function"
    },
    {
      "inputs": [
        {
          "internalType": "uint256",
          "name": "roundIndex",
          "type": "uint256"
        }
      ],
      "name": "amountStakedForRound",
      "outputs": [
        {
          "internalType": "uint256",
          "name": "",
          "type": "uint256"
        }
      ],
      "stateMutability": "view",
      "type": "function"
    },
    {
      "inputs": [
        {
          "internalType": "uint256",
          "name": "roundIndex",
          "type": "uint256"
        },
        {
          "internalType": "address",
          "name": "address_",
          "type": "address"
        }
      ],
      "name": "amountStakedForRoundByAddress",
      "outputs": [
        {
          "internalType": "uint256",
          "name": "",
          "type": "uint256"
        }
      ],
      "stateMutability": "view",
      "type": "function"
    },
    {
      "inputs": [
        {
          "internalType": "address",
          "name": "",
          "type": "address"
        }
      ],
      "name": "balanceOf",
      "outputs": [
        {
          "internalType": "uint256",
          "name": "",
          "type": "uint256"
        }
      ],
      "stateMutability": "view",
      "type": "function"
    },
    {
      "inputs": [
        {
          "internalType": "uint256",
          "name": "roundIndex_",
          "type": "uint256"
        }
      ],
      "name": "claimForRound",
      "outputs": [],
      "stateMutability": "nonpayable",
      "type": "function"
    },
    {
      "inputs": [
        {
          "internalType": "uint256",
          "name": "roundIndex_",
          "type": "uint256"
        },
        {
          "internalType": "uint256",
          "name": "depositIndex",
          "type": "uint256"
        }
      ],
      "name": "claimForRoundByDeposit",
      "outputs": [],
      "stateMutability": "nonpayable",
      "type": "function"
    },
    {
      "inputs": [
        {
          "internalType": "uint256",
          "name": "",
          "type": "uint256"
        },
        {
          "internalType": "uint256",
          "name": "",
          "type": "uint256"
        }
      ],
      "name": "claims",
      "outputs": [
        {
          "internalType": "uint256",
          "name": "",
          "type": "uint256"
        }
      ],
      "stateMutability": "view",
      "type": "function"
    },
    {
      "inputs": [],
      "name": "countActiveDeposits",
      "outputs": [
        {
          "internalType": "uint256",
          "name": "",
          "type": "uint256"
        }
      ],
      "stateMutability": "view",
      "type": "function"
    },
    {
      "inputs": [],
      "name": "countAllDeposits",
      "outputs": [
        {
          "internalType": "uint256",
          "name": "",
          "type": "uint256"
        }
      ],
      "stateMutability": "view",
      "type": "function"
    },
    {
      "inputs": [
        {
          "internalType": "uint256",
          "name": "roundIndex",
          "type": "uint256"
        }
      ],
      "name": "countDepositsForRound",
      "outputs": [
        {
          "internalType": "uint256",
          "name": "",
          "type": "uint256"
        }
      ],
      "stateMutability": "view",
      "type": "function"
    },
    {
      "inputs": [
        {
          "internalType": "uint256",
          "name": "roundIndex",
          "type": "uint256"
        },
        {
          "internalType": "address",
          "name": "address_",
          "type": "address"
        }
      ],
      "name": "countDepositsForRoundByAddress",
      "outputs": [
        {
          "internalType": "uint256",
          "name": "",
          "type": "uint256"
        }
      ],
      "stateMutability": "view",
      "type": "function"
    },
    {
      "inputs": [],
      "name": "countWithdrawnDeposits",
      "outputs": [
        {
          "internalType": "uint256",
          "name": "",
          "type": "uint256"
        }
      ],
      "stateMutability": "view",
      "type": "function"
    },
    {
      "inputs": [
        {
          "internalType": "uint256",
          "name": "startTime_",
          "type": "uint256"
        },
        {
          "internalType": "uint256",
          "name": "duration_",
          "type": "uint256"
        }
      ],
      "name": "createRound",
      "outputs": [],
      "stateMutability": "nonpayable",
      "type": "function"
    },
    {
      "inputs": [],
      "name": "currentRoundIndex",
      "outputs": [
        {
          "internalType": "uint256",
          "name": "",
          "type": "uint256"
        }
      ],
      "stateMutability": "view",
      "type": "function"
    },
    {
      "inputs": [
        {
          "internalType": "uint256",
          "name": "roundIndex_",
          "type": "uint256"
        },
        {
          "internalType": "uint256",
          "name": "amount_",
          "type": "uint256"
        }
      ],
      "name": "depositFunds",
      "outputs": [],
      "stateMutability": "payable",
      "type": "function"
    },
    {
      "inputs": [
        {
          "internalType": "address",
          "name": "address_",
          "type": "address"
        }
      ],
      "name": "depositIndexesByAddress",
      "outputs": [
        {
          "internalType": "uint256[]",
          "name": "",
          "type": "uint256[]"
        }
      ],
      "stateMutability": "view",
      "type": "function"
    },
    {
      "inputs": [
        {
          "internalType": "uint256",
          "name": "roundIndex",
          "type": "uint256"
        }
      ],
      "name": "depositIndexesForRound",
      "outputs": [
        {
          "internalType": "uint256[]",
          "name": "",
          "type": "uint256[]"
        }
      ],
      "stateMutability": "view",
      "type": "function"
    },
    {
      "inputs": [
        {
          "internalType": "uint256",
          "name": "roundIndex",
          "type": "uint256"
        },
        {
          "internalType": "address",
          "name": "address_",
          "type": "address"
        }
      ],
      "name": "depositIndexesForRoundByAddress",
      "outputs": [
        {
          "internalType": "uint256[]",
          "name": "",
          "type": "uint256[]"
        }
      ],
      "stateMutability": "view",
      "type": "function"
    },
    {
      "inputs": [
        {
          "internalType": "uint256",
          "name": "amount",
          "type": "uint256"
        }
      ],
      "name": "depositToken",
      "outputs": [],
      "stateMutability": "nonpayable",
      "type": "function"
    },
    {
      "inputs": [],
      "name": "depositedETH",
      "outputs": [
        {
          "internalType": "uint256",
          "name": "",
          "type": "uint256"
        }
      ],
      "stateMutability": "view",
      "type": "function"
    },
    {
      "inputs": [
        {
          "internalType": "uint256",
          "name": "",
          "type": "uint256"
        }
      ],
      "name": "deposits",
      "outputs": [
        {
          "internalType": "address",
          "name": "delegator",
          "type": "address"
        },
        {
          "internalType": "uint256",
          "name": "amount",
          "type": "uint256"
        },
        {
          "internalType": "uint256",
          "name": "depositTime",
          "type": "uint256"
        },
        {
          "internalType": "uint256",
          "name": "withdrawlTime",
          "type": "uint256"
        }
      ],
      "stateMutability": "view",
      "type": "function"
    },
    {
      "inputs": [
        {
          "internalType": "uint256",
          "name": "roundIndex",
          "type": "uint256"
        },
        {
          "internalType": "address",
          "name": "address_",
          "type": "address"
        }
      ],
      "name": "ethAllocForRoundByAddress",
      "outputs": [
        {
          "internalType": "uint256",
          "name": "",
          "type": "uint256"
        }
      ],
      "stateMutability": "view",
      "type": "function"
    },
    {
      "inputs": [
        {
          "internalType": "uint256",
          "name": "roundIndex",
          "type": "uint256"
        },
        {
          "internalType": "uint256",
          "name": "depositIndex",
          "type": "uint256"
        }
      ],
      "name": "ethAllocForRoundByDeposit",
      "outputs": [
        {
          "internalType": "uint256",
          "name": "",
          "type": "uint256"
        }
      ],
      "stateMutability": "view",
      "type": "function"
    },
    {
      "inputs": [
        {
          "internalType": "uint256",
          "name": "roundIndex",
          "type": "uint256"
        },
        {
          "internalType": "address",
          "name": "address_",
          "type": "address"
        }
      ],
      "name": "ethClaimedForRoundByAddress",
      "outputs": [
        {
          "internalType": "uint256",
          "name": "",
          "type": "uint256"
        }
      ],
      "stateMutability": "view",
      "type": "function"
    },
    {
      "inputs": [
        {
          "internalType": "uint256",
          "name": "roundIndex",
          "type": "uint256"
        },
        {
          "internalType": "uint256",
          "name": "depositIndex",
          "type": "uint256"
        }
      ],
      "name": "ethClaimedForRoundByDeposit",
      "outputs": [
        {
          "internalType": "uint256",
          "name": "",
          "type": "uint256"
        }
      ],
      "stateMutability": "view",
      "type": "function"
    },
    {
      "inputs": [
        {
          "internalType": "uint256",
          "name": "roundIndex",
          "type": "uint256"
        },
        {
          "internalType": "address",
          "name": "address_",
          "type": "address"
        }
      ],
      "name": "ethUnclaimedForRoundByAddress",
      "outputs": [
        {
          "internalType": "uint256",
          "name": "",
          "type": "uint256"
        }
      ],
      "stateMutability": "view",
      "type": "function"
    },
    {
      "inputs": [
        {
          "internalType": "uint256",
          "name": "roundIndex",
          "type": "uint256"
        },
        {
          "internalType": "uint256",
          "name": "depositIndex",
          "type": "uint256"
        }
      ],
      "name": "ethUnclaimedForRoundByDeposit",
      "outputs": [
        {
          "internalType": "uint256",
          "name": "",
          "type": "uint256"
        }
      ],
      "stateMutability": "view",
      "type": "function"
    },
    {
      "inputs": [],
      "name": "feeCliff",
      "outputs": [
        {
          "internalType": "uint256",
          "name": "",
          "type": "uint256"
        }
      ],
      "stateMutability": "view",
      "type": "function"
    },
    {
      "inputs": [
        {
          "internalType": "address",
          "name": "address_",
          "type": "address"
        }
      ],
      "name": "feeForAddress",
      "outputs": [
        {
          "internalType": "uint256",
          "name": "",
          "type": "uint256"
        }
      ],
      "stateMutability": "view",
      "type": "function"
    },
    {
      "inputs": [
        {
          "internalType": "uint256",
          "name": "depositIndex",
          "type": "uint256"
        }
      ],
      "name": "feeForDeposit",
      "outputs": [
        {
          "internalType": "uint256",
          "name": "",
          "type": "uint256"
        }
      ],
      "stateMutability": "view",
      "type": "function"
    },
    {
      "inputs": [],
      "name": "feeRate",
      "outputs": [
        {
          "internalType": "uint256",
          "name": "",
          "type": "uint256"
        }
      ],
      "stateMutability": "view",
      "type": "function"
    },
    {
      "inputs": [],
      "name": "feeReceiver",
      "outputs": [
        {
          "internalType": "address",
          "name": "",
          "type": "address"
        }
      ],
      "stateMutability": "view",
      "type": "function"
    },
    {
      "inputs": [
        {
          "internalType": "bytes32",
          "name": "role",
          "type": "bytes32"
        }
      ],
      "name": "getRoleAdmin",
      "outputs": [
        {
          "internalType": "bytes32",
          "name": "",
          "type": "bytes32"
        }
      ],
      "stateMutability": "view",
      "type": "function"
    },
    {
      "inputs": [
        {
          "internalType": "bytes32",
          "name": "role",
          "type": "bytes32"
        },
        {
          "internalType": "address",
          "name": "account",
          "type": "address"
        }
      ],
      "name": "grantRole",
      "outputs": [],
      "stateMutability": "nonpayable",
      "type": "function"
    },
    {
      "inputs": [
        {
          "internalType": "bytes32",
          "name": "role",
          "type": "bytes32"
        },
        {
          "internalType": "address",
          "name": "account",
          "type": "address"
        }
      ],
      "name": "hasRole",
      "outputs": [
        {
          "internalType": "bool",
          "name": "",
          "type": "bool"
        }
      ],
      "stateMutability": "view",
      "type": "function"
    },
    {
      "inputs": [],
      "name": "nbRounds",
      "outputs": [
        {
          "internalType": "uint256",
          "name": "",
          "type": "uint256"
        }
      ],
      "stateMutability": "view",
      "type": "function"
    },
    {
      "inputs": [],
      "name": "owner",
      "outputs": [
        {
          "internalType": "address",
          "name": "",
          "type": "address"
        }
      ],
      "stateMutability": "view",
      "type": "function"
    },
    {
      "inputs": [],
      "name": "renounceOwnership",
      "outputs": [],
      "stateMutability": "nonpayable",
      "type": "function"
    },
    {
      "inputs": [
        {
          "internalType": "bytes32",
          "name": "role",
          "type": "bytes32"
        },
        {
          "internalType": "address",
          "name": "account",
          "type": "address"
        }
      ],
      "name": "renounceRole",
      "outputs": [],
      "stateMutability": "nonpayable",
      "type": "function"
    },
    {
      "inputs": [
        {
          "internalType": "uint256",
          "name": "depositIndex",
          "type": "uint256"
        }
      ],
      "name": "rescueDeposit",
      "outputs": [],
      "stateMutability": "nonpayable",
      "type": "function"
    },
    {
      "inputs": [
        {
          "internalType": "uint256",
          "name": "amount",
          "type": "uint256"
        }
      ],
      "name": "rescueETH",
      "outputs": [],
      "stateMutability": "nonpayable",
      "type": "function"
    },
    {
      "inputs": [
        {
          "internalType": "bytes32",
          "name": "role",
          "type": "bytes32"
        },
        {
          "internalType": "address",
          "name": "account",
          "type": "address"
        }
      ],
      "name": "revokeRole",
      "outputs": [],
      "stateMutability": "nonpayable",
      "type": "function"
    },
    {
      "inputs": [
        {
          "internalType": "uint256",
          "name": "",
          "type": "uint256"
        }
      ],
      "name": "rounds",
      "outputs": [
        {
          "internalType": "uint256",
          "name": "startTime",
          "type": "uint256"
        },
        {
          "internalType": "uint256",
          "name": "duration",
          "type": "uint256"
        },
        {
          "internalType": "uint256",
          "name": "endTime",
          "type": "uint256"
        },
        {
          "internalType": "uint256",
          "name": "amountAllocated",
          "type": "uint256"
        },
        {
          "internalType": "uint256",
          "name": "amountClaimed",
          "type": "uint256"
        }
      ],
      "stateMutability": "view",
      "type": "function"
    },
    {
      "inputs": [
        {
          "internalType": "uint256",
          "name": "cliff",
          "type": "uint256"
        }
      ],
      "name": "setFeeCliff",
      "outputs": [],
      "stateMutability": "nonpayable",
      "type": "function"
    },
    {
      "inputs": [
        {
          "internalType": "uint256",
          "name": "rate",
          "type": "uint256"
        }
      ],
      "name": "setFeeRate",
      "outputs": [],
      "stateMutability": "nonpayable",
      "type": "function"
    },
    {
      "inputs": [
        {
          "internalType": "address",
          "name": "feeReceiver_",
          "type": "address"
        }
      ],
      "name": "setFeeReceiver",
      "outputs": [],
      "stateMutability": "nonpayable",
      "type": "function"
    },
    {
      "inputs": [
        {
          "internalType": "bytes4",
          "name": "interfaceId",
          "type": "bytes4"
        }
      ],
      "name": "supportsInterface",
      "outputs": [
        {
          "internalType": "bool",
          "name": "",
          "type": "bool"
        }
      ],
      "stateMutability": "view",
      "type": "function"
    },
    {
      "inputs": [],
      "name": "token",
      "outputs": [
        {
          "internalType": "contract IERC20",
          "name": "",
          "type": "address"
        }
      ],
      "stateMutability": "view",
      "type": "function"
    },
    {
      "inputs": [],
      "name": "totalSupply",
      "outputs": [
        {
          "internalType": "uint256",
          "name": "",
          "type": "uint256"
        }
      ],
      "stateMutability": "view",
      "type": "function"
    },
    {
      "inputs": [
        {
          "internalType": "address",
          "name": "newOwner",
          "type": "address"
        }
      ],
      "name": "transferOwnership",
      "outputs": [],
      "stateMutability": "nonpayable",
      "type": "function"
    },
    {
      "inputs": [
        {
          "internalType": "uint256",
          "name": "roundIndex_",
          "type": "uint256"
        },
        {
          "internalType": "uint256",
          "name": "startTime_",
          "type": "uint256"
        },
        {
          "internalType": "uint256",
          "name": "duration_",
          "type": "uint256"
        }
      ],
      "name": "updateRound",
      "outputs": [],
      "stateMutability": "nonpayable",
      "type": "function"
    },
    {
      "inputs": [
        {
          "internalType": "uint256",
          "name": "roundIndex",
          "type": "uint256"
        },
        {
          "internalType": "uint256",
          "name": "depositIndex",
          "type": "uint256"
        }
      ],
      "name": "weightedAverageForDeposit",
      "outputs": [
        {
          "internalType": "uint256",
          "name": "",
          "type": "uint256"
        }
      ],
      "stateMutability": "view",
      "type": "function"
    },
    {
      "inputs": [
        {
          "internalType": "uint256",
          "name": "roundIndex",
          "type": "uint256"
        },
        {
          "internalType": "address",
          "name": "address_",
          "type": "address"
        }
      ],
      "name": "weightedAverageForRoundByAddress",
      "outputs": [
        {
          "internalType": "uint256",
          "name": "",
          "type": "uint256"
        }
      ],
      "stateMutability": "view",
      "type": "function"
    },
    {
      "inputs": [],
      "name": "withdrawAll",
      "outputs": [],
      "stateMutability": "nonpayable",
      "type": "function"
    },
    {
      "inputs": [
        {
          "internalType": "uint256",
          "name": "depositIndex",
          "type": "uint256"
        }
      ],
      "name": "withdrawByDeposit",
      "outputs": [],
      "stateMutability": "nonpayable",
      "type": "function"
    },
    {
      "stateMutability": "payable",
      "type": "receive"
    }
  ],
  "bytecode": "0x60806040526000600555601960095562278d00600a553480156200002257600080fd5b506040516200419538038062004195833981016040819052620000459162000527565b62000050336200016a565b6200005d600033620001ba565b60016003556001600160a01b038216620000d25760405162461bcd60e51b815260206004820152602b60248201527f45524332305374616b696e673a2045524332302063616e206e6f74206265206160448201526a646472657373207a65726f60a81b60648201526084015b60405180910390fd5b600480546001600160a01b0319166001600160a01b0384161790556200010c6000620001066000546001600160a01b031690565b620001ba565b620001178162000229565b600454600b54604080516001600160a01b0393841681529290911660208301527f6cbd957809e2aaf4d5e36136d06e71215f53a984b218c6d501e22f91d348d9ce910160405180910390a15050620006bf565b600080546001600160a01b038381166001600160a01b0319831681178455604051919092169283917f8be0079c531659141344cd1fd0a4f28419497f9722a3daafe3b4186f6b6457e09190a35050565b620001c682826200028b565b620002255760008281526001602081815260408084206001600160a01b0386168086529252808420805460ff19169093179092559051339285917f2f8788117e7eff1d82e926ec794901d17c78024a50270940304540a733656f0d9190a45b5050565b60006200023681620002b8565b600b80546001600160a01b0319166001600160a01b0384169081179091556040519081527fffb40bfdfd246e95f543d08d9713c339f1d90fa9265e39b4f562f9011d7c919f9060200160405180910390a15050565b60008281526001602090815260408083206001600160a01b038516845290915290205460ff165b92915050565b620002c48133620002c7565b50565b620002d382826200028b565b6200022557620002f9816001600160a01b031660146200034a60201b620030be1760201c565b6200030f836020620030be6200034a821b17811c565b6040516020016200032292919062000585565b60408051601f198184030181529082905262461bcd60e51b8252620000c991600401620005fe565b606060006200035b83600262000649565b6200036890600262000663565b6001600160401b0381111562000382576200038262000679565b6040519080825280601f01601f191660200182016040528015620003ad576020820181803683370190505b509050600360fc1b81600081518110620003cb57620003cb6200068f565b60200101906001600160f81b031916908160001a905350600f60fb1b81600181518110620003fd57620003fd6200068f565b60200101906001600160f81b031916908160001a90535060006200042384600262000649565b6200043090600162000663565b90505b6001811115620004b2576f181899199a1a9b1b9c1cb0b131b232b360811b85600f16601081106200046857620004686200068f565b1a60f81b8282815181106200048157620004816200068f565b60200101906001600160f81b031916908160001a90535060049490941c93620004aa81620006a5565b905062000433565b508315620005035760405162461bcd60e51b815260206004820181905260248201527f537472696e67733a20686578206c656e67746820696e73756666696369656e746044820152606401620000c9565b9392505050565b80516001600160a01b03811681146200052257600080fd5b919050565b600080604083850312156200053b57600080fd5b62000546836200050a565b915062000556602084016200050a565b90509250929050565b60005b838110156200057c57818101518382015260200162000562565b50506000910152565b7f416363657373436f6e74726f6c3a206163636f756e7420000000000000000000815260008351620005bf8160178501602088016200055f565b7001034b99036b4b9b9b4b733903937b6329607d1b6017918401918201528351620005f28160288401602088016200055f565b01602801949350505050565b60208152600082518060208401526200061f8160408501602087016200055f565b601f01601f19169190910160400192915050565b634e487b7160e01b600052601160045260246000fd5b8082028115828204841417620002b257620002b262000633565b80820180821115620002b257620002b262000633565b634e487b7160e01b600052604160045260246000fd5b634e487b7160e01b600052603260045260246000fd5b600081620006b757620006b762000633565b506000190190565b613ac680620006cf6000396000f3fe60806040526004361061037a5760003560e01c8063853828b6116101d1578063b02c43d011610102578063e1affd05116100a0578063f2f8ffa61161006f578063f2f8ffa614610a37578063f2fde38b14610a57578063f894160e14610a77578063fc0c546a14610aaf57600080fd5b8063e1affd05146109cd578063e6abc789146109ed578063ecf0a76b14610a02578063efdcd97414610a1757600080fd5b8063b883457c116100dc578063b883457c1461094d578063bc35c9021461096d578063c6e1e7321461098d578063d547741f146109ad57600080fd5b8063b02c43d0146108dd578063b0f2d4611461090d578063b3f006741461092d57600080fd5b8063a1215c3b1161016f578063a90bcbe511610149578063a90bcbe514610850578063a96ea32d14610888578063ad42ac54146108a8578063aedc625d146108bd57600080fd5b8063a1215c3b146107fb578063a217fddf1461081b578063a75e82711461083057600080fd5b806391d14854116101ab57806391d148541461079057806392f6576e146107b0578063978bbdb9146107c55780639e252f00146107db57600080fd5b8063853828b6146107015780638c65c81f146107165780638da5cb5b1461075e57600080fd5b8063443c4b67116102ab5780636896ef4b11610249578063715018a611610223578063715018a61461068c5780638177a158146106a1578063848ee75f146106c157806384e6dd95146106e157600080fd5b80636896ef4b1461062a5780636dfe8aaa1461063f57806370a082311461065f57600080fd5b806353244cf51161028557806353244cf5146105b75780635507219f146105d757806361638ed5146105f75780636215be771461060a57600080fd5b8063443c4b671461056157806345596e2e146105815780634ae791c4146105a157600080fd5b80632692020d1161031857806336568abe116102f257806336568abe146104f65780633fdd47d914610516578063416227ee1461052c57806341e13d271461054c57600080fd5b80632692020d146104895780632f2ff15d146104a957806334610ee6146104c957600080fd5b806318160ddd1161035457806318160ddd1461040b578063203070d714610421578063248a9ca31461044157806324ca14451461047257600080fd5b806301ffc9a7146103865780630dd0836d146103bb5780631517422f146103dd57600080fd5b3661038157005b600080fd5b34801561039257600080fd5b506103a66103a136600461366a565b610acf565b60405190151581526020015b60405180910390f35b3480156103c757600080fd5b506103db6103d6366004613694565b610b06565b005b3480156103e957600080fd5b506103fd6103f83660046136ad565b610cce565b6040519081526020016103b2565b34801561041757600080fd5b506103fd60055481565b34801561042d57600080fd5b506103db61043c366004613694565b610d2c565b34801561044d57600080fd5b506103fd61045c366004613694565b6000908152600160208190526040909120015490565b34801561047e57600080fd5b506103fd62278d0081565b34801561049557600080fd5b506103fd6104a4366004613694565b610f49565b3480156104b557600080fd5b506103db6104c43660046136eb565b610fd0565b3480156104d557600080fd5b506104e96104e43660046136eb565b610ffb565b6040516103b29190613717565b34801561050257600080fd5b506103db6105113660046136eb565b6111a7565b34801561052257600080fd5b506103fd600a5481565b34801561053857600080fd5b506103fd6105473660046136eb565b611225565b34801561055857600080fd5b506103fd6112a5565b34801561056d57600080fd5b506103fd61057c3660046136ad565b6112e8565b34801561058d57600080fd5b506103db61059c366004613694565b611491565b3480156105ad57600080fd5b506103fd600c5481565b3480156105c357600080fd5b506103fd6105d23660046136eb565b611548565b3480156105e357600080fd5b506103fd6105f23660046136eb565b6115b1565b6103db6106053660046136ad565b611629565b34801561061657600080fd5b506103db610625366004613694565b6117d0565b34801561063657600080fd5b506103fd611ab4565b34801561064b57600080fd5b506103db61065a3660046136ad565b611b63565b34801561066b57600080fd5b506103fd61067a36600461375b565b60066020526000908152604090205481565b34801561069857600080fd5b506103db611d78565b3480156106ad57600080fd5b506103fd6106bc3660046136ad565b611d8c565b3480156106cd57600080fd5b506103db6106dc3660046136ad565b611dc0565b3480156106ed57600080fd5b506103fd6106fc3660046136eb565b611f37565b34801561070d57600080fd5b506103db611f9b565b34801561072257600080fd5b50610736610731366004613694565b6122c9565b604080519586526020860194909452928401919091526060830152608082015260a0016103b2565b34801561076a57600080fd5b506000546001600160a01b03165b6040516001600160a01b0390911681526020016103b2565b34801561079c57600080fd5b506103a66107ab3660046136eb565b61230a565b3480156107bc57600080fd5b506103fd601981565b3480156107d157600080fd5b506103fd60095481565b3480156107e757600080fd5b506103db6107f6366004613694565b612335565b34801561080757600080fd5b506103fd610816366004613694565b61240d565b34801561082757600080fd5b506103fd600081565b34801561083c57600080fd5b506103fd61084b366004613694565b61241f565b34801561085c57600080fd5b506103fd61086b3660046136ad565b600091825260086020908152604080842092845291905290205490565b34801561089457600080fd5b506104e96108a336600461375b565b6124ca565b3480156108b457600080fd5b506103fd612648565b3480156108c957600080fd5b506103fd6108d83660046136eb565b612684565b3480156108e957600080fd5b506108fd6108f8366004613694565b612698565b6040516103b29493929190613776565b34801561091957600080fd5b506103fd61092836600461375b565b6126dc565b34801561093957600080fd5b50600b54610778906001600160a01b031681565b34801561095957600080fd5b506104e9610968366004613694565b61273e565b34801561097957600080fd5b506103db610988366004613694565b612932565b34801561099957600080fd5b506103db6109a836600461379c565b6129eb565b3480156109b957600080fd5b506103db6109c83660046136eb565b612c8e565b3480156109d957600080fd5b506103db6109e8366004613694565b612cb4565b3480156109f957600080fd5b506002546103fd565b348015610a0e57600080fd5b506007546103fd565b348015610a2357600080fd5b506103db610a3236600461375b565b612f88565b348015610a4357600080fd5b506103fd610a523660046136eb565b612fe1565b348015610a6357600080fd5b506103db610a7236600461375b565b613045565b348015610a8357600080fd5b506103fd610a923660046136ad565b600860209081526000928352604080842090915290825290205481565b348015610abb57600080fd5b50600454610778906001600160a01b031681565b60006001600160e01b03198216637965db0b60e01b1480610b0057506301ffc9a760e01b6001600160e01b03198316145b92915050565b600060028281548110610b1b57610b1b6137c8565b9060005260206000209060050201905080600201544211610b575760405162461bcd60e51b8152600401610b4e906137de565b60405180910390fd5b6000610b638333610ffb565b90506000805b8251811015610c7b576000838281518110610b8657610b866137c8565b60200260200101519050600060078281548110610ba557610ba56137c8565b600091825260209182902060408051608081018252600490930290910180546001600160a01b031680845260018201549484019490945260028101549183019190915260030154606082015291503314610bfe57600080fd5b6000610c0a8884611d8c565b6000898152600860209081526040808320878452909152812080549293508392909190610c38908490613835565b9250508190555080876004016000828254610c539190613835565b90915550610c6390508186613835565b94505050508080610c7390613848565b915050610b69565b50610c863382613261565b60408051338152602081018690529081018290527ffe40676cc8b72f39e6dd6a87a278f3c5a80e8092ba4ff4da20ca47079de3003f906060015b60405180910390a150505050565b60008060028481548110610ce457610ce46137c8565b90600052602060002090600502016003015490506000610d0485856112e8565b9050670de0b6b3a7640000610d198284613861565b610d239190613878565b95945050505050565b6000610d378161337a565b610d4082613384565b610d9c5760405162461bcd60e51b815260206004820152602760248201527f45524332305374616b696e673a206465706f73697420616c72656164792077696044820152663a34323930bbb760c91b6064820152608401610b4e565b600060078381548110610db157610db16137c8565b90600052602060002090600402019050428160030181905550806001015460056000828254610de0919061389a565b9091555050600181015481546001600160a01b031660009081526006602052604081208054909190610e1390849061389a565b909155505060048054600183015460405163095ea7b360e01b8152309381019390935260248301526001600160a01b03169063095ea7b3906044016020604051808303816000875af1158015610e6d573d6000803e3d6000fd5b505050506040513d601f19601f82011682018060405250810190610e9191906138ad565b5060048054825460018401546040516323b872dd60e01b81526001600160a01b03938416946323b872dd94610ecd9430949116929091016138cf565b6020604051808303816000875af1158015610eec573d6000803e3d6000fd5b505050506040513d601f19601f82011682018060405250810190610f1091906138ad565b506040518381527f40b98a7641e0f30866617d8f95f35b2e77b8a97b5fed81aff84b5a3ccd893ade9060200160405180910390a1505050565b600080610f558361273e565b90506000805b8251811015610fc8576000838281518110610f7857610f786137c8565b6020026020010151905060078181548110610f9557610f956137c8565b90600052602060002090600402016001015483610fb29190613835565b9250508080610fc090613848565b915050610f5b565b509392505050565b60008281526001602081905260409091200154610fec8161337a565b610ff683836133b6565b505050565b606060006110088461273e565b604080516000808252602082019092529192505b825181101561119e576000838281518110611039576110396137c8565b60200260200101519050600060078281548110611058576110586137c8565b600091825260209182902060408051608081018252600490930290910180546001600160a01b0390811680855260018301549585019590955260028201549284019290925260030154606083015290925088169003611189576000845160016110c19190613835565b67ffffffffffffffff8111156110d9576110d96138f3565b604051908082528060200260200182016040528015611102578160200160208202803683370190505b50905060005b855181101561115a57858181518110611123576111236137c8565b602002602001015182828151811061113d5761113d6137c8565b60209081029190910101528061115281613848565b915050611108565b5082816001835161116b919061389a565b8151811061117b5761117b6137c8565b602090810291909101015293505b5050808061119690613848565b91505061101c565b50949350505050565b6001600160a01b03811633146112175760405162461bcd60e51b815260206004820152602f60248201527f416363657373436f6e74726f6c3a2063616e206f6e6c792072656e6f756e636560448201526e103937b632b9903337b91039b2b63360891b6064820152608401610b4e565b6112218282613421565b5050565b6000806112328484610ffb565b90506000805b825181101561119e576000838281518110611255576112556137c8565b6020026020010151905060078181548110611272576112726137c8565b9060005260206000209060040201600101548361128f9190613835565b925050808061129d90613848565b915050611238565b600080805b6007548110156112e2576112bd81613384565b156112d057816112cc81613848565b9250505b806112da81613848565b9150506112aa565b50919050565b6000806112f48461273e565b905060006002858154811061130b5761130b6137c8565b90600052602060002090600502016040518060a001604052908160008201548152602001600182015481526020016002820154815260200160038201548152602001600482015481525050905060008060008060005b865181101561144457600087828151811061137e5761137e6137c8565b6020026020010151905060006007828154811061139d5761139d6137c8565b6000918252602080832060408051608081018252600490940290910180546001600160a01b03168452600181015492840192909252600282015483820181905260039092015460608401528b51908c01519294506113fc929091613488565b90506114088188613835565b965081602001518861141a9190613835565b97508b830361142e57809450816020015195505b505050808061143c90613848565b915050611361565b5060006114518486613861565b875161145d8486613861565b61146f90670de0b6b3a7640000613861565b6114799190613861565b6114839190613878565b9a9950505050505050505050565b600061149c8161337a565b601982111561150b5760405162461bcd60e51b815260206004820152603560248201527f45524332305374616b696e673a204665652072617465206d757374206265206c604482015274657373207468616e204d41585f4645455f5241544560581b6064820152608401610b4e565b60098290556040518281527f6717373928cccf59cc9912055cfa8db86e7085b95c94c15862b121114aa333be906020015b60405180910390a15050565b6000806115558484610ffb565b90506000805b825181101561119e576000838281518110611578576115786137c8565b60200260200101519050600061158e88836112e8565b905061159a8185613835565b9350505080806115a990613848565b91505061155b565b6000806115be8484610ffb565b90506000805b825181101561119e5760008382815181106115e1576115e16137c8565b602090810291909101810151600089815260088352604080822083835290935291909120549091506116139084613835565b925050808061162190613848565b9150506115c4565b60006116348161337a565b600254831061168f5760405162461bcd60e51b815260206004820152602160248201527f45524332305374616b696e673a20726f756e6420646f65736e277420657869736044820152601d60fa1b6064820152608401610b4e565b600034116116df5760405162461bcd60e51b815260206004820181905260248201527f45524332305374616b696e673a204d75737420696e636c7564652066756e64736044820152606401610b4e565b34821461173d5760405162461bcd60e51b815260206004820152602660248201527f45524332305374616b696e673a2046756e647320646f6e2774206d6174636820604482015265185b5bdd5b9d60d21b6064820152608401610b4e565b600060028481548110611752576117526137c8565b90600052602060002090600502019050348160030160008282546117769190613835565b9250508190555034600c600082825461178f9190613835565b909155505060038101546040805186815260208101929092527fc30d09038cdea01854d3b58940393d97d881e83f40ddc3a8225f32e76b584b149101610cc0565b6002600354036117f25760405162461bcd60e51b8152600401610b4e90613909565b6002600355600480546040516370a0823160e01b8152339281019290925282916001600160a01b03909116906370a0823190602401602060405180830381865afa158015611844573d6000803e3d6000fd5b505050506040513d601f19601f820116820180604052508101906118689190613940565b10156118cc5760405162461bcd60e51b815260206004820152602d60248201527f45524332305374616b696e673a2063616e2774206465706f736974206d6f726560448201526c103a3430b7103cb7ba9037bbb760991b6064820152608401610b4e565b600480546040516323b872dd60e01b81526001600160a01b03909116916323b872dd916118ff91339130918791016138cf565b6020604051808303816000875af115801561191e573d6000803e3d6000fd5b505050506040513d601f19601f8201168201806040525081019061194291906138ad565b5080600560008282546119559190613835565b90915550503360009081526006602052604081208054839290611979908490613835565b9091555050604080516080810182523381526020810183815242828401908152600019606084019081526007805460018101825560009190915284517fa66cc928b5edb82af9bd49922954155ab7b0942694bea4ce44661d9a8736c688600490920291820180546001600160a01b0319166001600160a01b03831617905593517fa66cc928b5edb82af9bd49922954155ab7b0942694bea4ce44661d9a8736c689820181905592517fa66cc928b5edb82af9bd49922954155ab7b0942694bea4ce44661d9a8736c68a820181905591517fa66cc928b5edb82af9bd49922954155ab7b0942694bea4ce44661d9a8736c68b909101819055945193947f671f7c71634bb58a69d818c598151563dd0a47f03edb950e59c85246fa9ceea894611aa39493929190613776565b60405180910390a150506001600355565b6000805b600254811015611b5a57600060028281548110611ad757611ad76137c8565b90600052602060002090600502016040518060a001604052908160008201548152602001600182015481526020016002820154815260200160038201548152602001600482015481525050905042816000015111158015611b3c575042816040015110155b15611b475750919050565b5080611b5281613848565b915050611ab8565b50600019905090565b600060028381548110611b7857611b786137c8565b9060005260206000209060050201905080600201544211611bab5760405162461bcd60e51b8152600401610b4e906137de565b600060078381548110611bc057611bc06137c8565b600091825260209182902060408051608081018252600490930290910180546001600160a01b031680845260018201549484019490945260028101549183019190915260030154606082015291503314611c705760405162461bcd60e51b815260206004820152602b60248201527f45524332305374616b696e673a2073656e646572206973206e6f74207468652060448201526a3a37b5b2b71037bbb732b960a91b6064820152608401610b4e565b6000611c7c8585611d8c565b905060008111611cde5760405162461bcd60e51b815260206004820152602760248201527f45524332305374616b696e673a207468657265206973206e6f7468696e6720746044820152666f20636c61696d60c81b6064820152608401610b4e565b8151611cea9082613261565b600085815260086020908152604080832087845290915281208054839290611d13908490613835565b9250508190555080836004016000828254611d2e9190613835565b909155505081516040517f45c072aa05b9853b5a993de7a28bc332ee01404a628cec1a23ce0f659f842ef191611d6991889088908690613776565b60405180910390a15050505050565b611d806134a8565b611d8a6000613502565b565b600080611d998484610cce565b6000858152600860209081526040808320878452909152902054909150610d23818361389a565b6000611dcb8161337a565b6000611dd78385613835565b9050611de284613552565b6040805160a0810182528581526020810185815281830184815260006060840181815260808501828152600280546001810182559352855160059093027f405787fa12a823e0f2b7631cc41b3ba8828b3321ca811111fa75cd3aa3bb5ace810184905594517f405787fa12a823e0f2b7631cc41b3ba8828b3321ca811111fa75cd3aa3bb5acf860181905593517f405787fa12a823e0f2b7631cc41b3ba8828b3321ca811111fa75cd3aa3bb5ad0860181905591517f405787fa12a823e0f2b7631cc41b3ba8828b3321ca811111fa75cd3aa3bb5ad1860181905590517f405787fa12a823e0f2b7631cc41b3ba8828b3321ca811111fa75cd3aa3bb5ad2909501859055955194957f519f8bffd327b774b2e6c104d83cdf5f1526d480d3acc25ccd8abae55e4f627295611d699593949390948552602085019390935260408401919091526060830152608082015260a00190565b600080611f448484610ffb565b90506000805b825181101561119e576000838281518110611f6757611f676137c8565b60200260200101519050611f7b8782610cce565b611f859084613835565b9250508080611f9390613848565b915050611f4a565b600260035403611fbd5760405162461bcd60e51b8152600401610b4e90613909565b60026003556000611fcd336124ca565b905060008060005b835181101561209c576000848281518110611ff257611ff26137c8565b6020026020010151905061200581613384565b156120895760006007828154811061201f5761201f6137c8565b6000918252602090912060049091020180549091506001600160a01b0316331461204857600080fd5b60006120538361241f565b9050808260010154612065919061389a565b61206f9087613835565b955061207b8186613835565b945042826003018190555050505b508061209481613848565b915050611fd5565b506120a78183613835565b600560008282546120b8919061389a565b909155506120c890508183613835565b33600090815260066020526040812080549091906120e790849061389a565b90915550506004546001600160a01b031663095ea7b3306121088486613835565b6040516001600160e01b031960e085901b1681526001600160a01b03909216600483015260248201526044016020604051808303816000875af1158015612153573d6000803e3d6000fd5b505050506040513d601f19601f8201168201806040525081019061217791906138ad565b50600480546040516323b872dd60e01b81526001600160a01b03909116916323b872dd916121ab91309133918891016138cf565b6020604051808303816000875af11580156121ca573d6000803e3d6000fd5b505050506040513d601f19601f820116820180604052508101906121ee91906138ad565b5080156122715760048054600b546040516323b872dd60e01b81526001600160a01b03928316936323b872dd9361222c9330939116918791016138cf565b6020604051808303816000875af115801561224b573d6000803e3d6000fd5b505050506040513d601f19601f8201168201806040525081019061226f91906138ad565b505b7fbe7426aee8a34d0263892b55ce65ce81d8f4c806eb4719e59015ea49feb92d223361229d8385613835565b604080516001600160a01b03909316835260208301919091520160405180910390a15050600160035550565b600281815481106122d957600080fd5b6000918252602090912060059091020180546001820154600283015460038401546004909401549294509092909185565b60009182526001602090815260408084206001600160a01b0393909316845291905290205460ff1690565b60006123408161337a565b600061234c834761389a565b10156123b25760405162461bcd60e51b815260206004820152602f60248201527f45524332305374616b696e673a2072657363756520616d6f756e74206774206360448201526e6f6e74726163742062616c616e636560881b6064820152608401610b4e565b6123bc3383613261565b81600c54106123dd5781600c60008282546123d7919061389a565b90915550505b6040518281527f103add520cfd30dd0ad5e069258f06d08bc373a5079338aacf71cd52aa2b969f9060200161153c565b60006124188261273e565b5192915050565b6000806000905060006007848154811061243b5761243b6137c8565b6000918252602080832060408051608081018252600490940290910180546001600160a01b0316845260018101549284019290925260028201549083018190526003909101546060830152600a549193506124969190613835565b9050428111156124c157606460095483602001516124b49190613861565b6124be9190613878565b92505b50909392505050565b604080516000808252602082019092526060915b600754811015612641576000600782815481106124fd576124fd6137c8565b600091825260209182902060408051608081018252600490930290910180546001600160a01b039081168085526001830154958501959095526002820154928401929092526003015460608301529092508616900361262e576000835160016125669190613835565b67ffffffffffffffff81111561257e5761257e6138f3565b6040519080825280602002602001820160405280156125a7578160200160208202803683370190505b50905060005b84518110156125ff578481815181106125c8576125c86137c8565b60200260200101518282815181106125e2576125e26137c8565b6020908102919091010152806125f781613848565b9150506125ad565b50828160018351612610919061389a565b81518110612620576126206137c8565b602090810291909101015292505b508061263981613848565b9150506124de565b5092915050565b600080805b6007548110156112e25761266081613384565b612672578161266e81613848565b9250505b8061267c81613848565b91505061264d565b60006126908383610ffb565b519392505050565b600781815481106126a857600080fd5b600091825260209091206004909102018054600182015460028301546003909301546001600160a01b039092169350919084565b600080806126e9846124ca565b905060005b81518110156124c157600082828151811061270b5761270b6137c8565b6020026020010151905061271e8161241f565b6127289085613835565b935050808061273690613848565b9150506126ee565b6060600060028381548110612755576127556137c8565b600091825260208083206040805160a081018252600594909402909101805484526001810154848401526002810154848301526003810154606085015260040154608084015280518481529182019052909250905b600754811015610fc8576000600782815481106127c9576127c96137c8565b600091825260209182902060408051608081018252600490930290910180546001600160a01b0316835260018101549383019390935260028301548282018190526003909301546060830152860151909250111561291f5761282a82613384565b806128425750612842816060015185604001516135ee565b1561291f576000835160016128579190613835565b67ffffffffffffffff81111561286f5761286f6138f3565b604051908082528060200260200182016040528015612898578160200160208202803683370190505b50905060005b84518110156128f0578481815181106128b9576128b96137c8565b60200260200101518282815181106128d3576128d36137c8565b6020908102919091010152806128e881613848565b91505061289e565b50828160018351612901919061389a565b81518110612911576129116137c8565b602090810291909101015292505b508061292a81613848565b9150506127aa565b600061293d8161337a565b62278d008211156129b65760405162461bcd60e51b815260206004820152603760248201527f45524332305374616b696e673a2046656520636c696666206d7573742062652060448201527f6c657373207468616e204d41585f4645455f434c4946460000000000000000006064820152608401610b4e565b600a8290556040518281527fbd3066e2ccda31ec23384fe9a58df9a279da04215205a68b3c5dfd8ae6eecf7f9060200161153c565b60025483908110612a485760405162461bcd60e51b815260206004820152602160248201527f526f756e64436f6e74726f6c3a20726f756e6420646f65736e277420657869736044820152601d60fa1b6064820152608401610b4e565b6000612a538161337a565b8415612aea5760006002612a6860018861389a565b81548110612a7857612a786137c8565b90600052602060002090600502016040518060a001604052908160008201548152602001600182015481526020016002820154815260200160038201548152602001600482015481525050905080604001518511612ae85760405162461bcd60e51b8152600401610b4e90613959565b505b6000612af68486613835565b600254909150612b089060019061389a565b861015612bf65760006002612b1e886001613835565b81548110612b2e57612b2e6137c8565b90600052602060002090600502016040518060a001604052908160008201548152602001600182015481526020016002820154815260200160038201548152602001600482015481525050905080600001518210612bf45760405162461bcd60e51b815260206004820152603a60248201527f526f756e64436f6e74726f6c3a2063616e277420656e6420726f756e6420616660448201527f746572206e65787420726f756e642068617320737461727465640000000000006064820152608401610b4e565b505b600060028781548110612c0b57612c0b6137c8565b6000918252602091829020600590910201878155600181018790556002810184905560038101546004820154604080518b81529485018a905284018690526060840191909152608083015291507f153be7fffad81a448dd72e351b477e835c58cd4a84a052a997ae5e31bdc5b6319060a00160405180910390a150505050505050565b60008281526001602081905260409091200154612caa8161337a565b610ff68383613421565b600260035403612cd65760405162461bcd60e51b8152600401610b4e90613909565b6002600381905550600080600060078481548110612cf657612cf66137c8565b6000918252602090912060049091020180549091506001600160a01b03163314612d1f57600080fd5b6000612d2a8561241f565b9050808260010154612d3c919061389a565b612d469085613835565b9350612d528184613835565b4260038401559250612d648385613835565b60056000828254612d75919061389a565b90915550612d8590508385613835565b3360009081526006602052604081208054909190612da490849061389a565b90915550506004546001600160a01b031663095ea7b330612dc58688613835565b6040516001600160e01b031960e085901b1681526001600160a01b03909216600483015260248201526044016020604051808303816000875af1158015612e10573d6000803e3d6000fd5b505050506040513d601f19601f82011682018060405250810190612e3491906138ad565b50600480546040516323b872dd60e01b81526001600160a01b03909116916323b872dd91612e6891309133918a91016138cf565b6020604051808303816000875af1158015612e87573d6000803e3d6000fd5b505050506040513d601f19601f82011682018060405250810190612eab91906138ad565b508215612f2e5760048054600b546040516323b872dd60e01b81526001600160a01b03928316936323b872dd93612ee99330939116918991016138cf565b6020604051808303816000875af1158015612f08573d6000803e3d6000fd5b505050506040513d601f19601f82011682018060405250810190612f2c91906138ad565b505b7fbe7426aee8a34d0263892b55ce65ce81d8f4c806eb4719e59015ea49feb92d2233612f5a8587613835565b604080516001600160a01b03909316835260208301919091520160405180910390a150506001600355505050565b6000612f938161337a565b600b80546001600160a01b0319166001600160a01b0384169081179091556040519081527fffb40bfdfd246e95f543d08d9713c339f1d90fa9265e39b4f562f9011d7c919f9060200161153c565b600080612fee8484610ffb565b90506000805b825181101561119e576000838281518110613011576130116137c8565b602002602001015190506130258782611d8c565b61302f9084613835565b925050808061303d90613848565b915050612ff4565b61304d6134a8565b6001600160a01b0381166130b25760405162461bcd60e51b815260206004820152602660248201527f4f776e61626c653a206e6577206f776e657220697320746865207a65726f206160448201526564647265737360d01b6064820152608401610b4e565b6130bb81613502565b50565b606060006130cd836002613861565b6130d8906002613835565b67ffffffffffffffff8111156130f0576130f06138f3565b6040519080825280601f01601f19166020018201604052801561311a576020820181803683370190505b509050600360fc1b81600081518110613135576131356137c8565b60200101906001600160f81b031916908160001a905350600f60fb1b81600181518110613164576131646137c8565b60200101906001600160f81b031916908160001a9053506000613188846002613861565b613193906001613835565b90505b600181111561320b576f181899199a1a9b1b9c1cb0b131b232b360811b85600f16601081106131c7576131c76137c8565b1a60f81b8282815181106131dd576131dd6137c8565b60200101906001600160f81b031916908160001a90535060049490941c93613204816139ad565b9050613196565b50831561325a5760405162461bcd60e51b815260206004820181905260248201527f537472696e67733a20686578206c656e67746820696e73756666696369656e746044820152606401610b4e565b9392505050565b804710156132b15760405162461bcd60e51b815260206004820152601d60248201527f416464726573733a20696e73756666696369656e742062616c616e63650000006044820152606401610b4e565b6000826001600160a01b03168260405160006040518083038185875af1925050503d80600081146132fe576040519150601f19603f3d011682016040523d82523d6000602084013e613303565b606091505b5050905080610ff65760405162461bcd60e51b815260206004820152603a60248201527f416464726573733a20756e61626c6520746f2073656e642076616c75652c207260448201527f6563697069656e74206d617920686176652072657665727465640000000000006064820152608401610b4e565b6130bb8133613606565b60006000196007838154811061339c5761339c6137c8565b906000526020600020906004020160030154149050919050565b6133c0828261230a565b6112215760008281526001602081815260408084206001600160a01b0386168086529252808420805460ff19169093179092559051339285917f2f8788117e7eff1d82e926ec794901d17c78024a50270940304540a733656f0d9190a45050565b61342b828261230a565b156112215760008281526001602090815260408083206001600160a01b0385168085529252808320805460ff1916905551339285917ff6391f5c32d9c69d2a47ea670b442974b53935d1edc7fd64eb21e047a839171b9190a45050565b600083821015613496578391505b6134a0828461389a565b949350505050565b6000546001600160a01b03163314611d8a5760405162461bcd60e51b815260206004820181905260248201527f4f776e61626c653a2063616c6c6572206973206e6f7420746865206f776e65726044820152606401610b4e565b600080546001600160a01b038381166001600160a01b0319831681178455604051919092169283917f8be0079c531659141344cd1fd0a4f28419497f9722a3daafe3b4186f6b6457e09190a35050565b600254156130bb57600280546000919061356e9060019061389a565b8154811061357e5761357e6137c8565b90600052602060002090600502016040518060a0016040529081600082015481526020016001820154815260200160028201548152602001600382015481526020016004820154815250509050806040015182116112215760405162461bcd60e51b8152600401610b4e90613959565b6000818311801561325a575060001983109392505050565b613610828261230a565b61122157613628816001600160a01b031660146130be565b6136338360206130be565b6040516020016136449291906139e8565b60408051601f198184030181529082905262461bcd60e51b8252610b4e91600401613a5d565b60006020828403121561367c57600080fd5b81356001600160e01b03198116811461325a57600080fd5b6000602082840312156136a657600080fd5b5035919050565b600080604083850312156136c057600080fd5b50508035926020909101359150565b80356001600160a01b03811681146136e657600080fd5b919050565b600080604083850312156136fe57600080fd5b8235915061370e602084016136cf565b90509250929050565b6020808252825182820181905260009190848201906040850190845b8181101561374f57835183529284019291840191600101613733565b50909695505050505050565b60006020828403121561376d57600080fd5b61325a826136cf565b6001600160a01b0394909416845260208401929092526040830152606082015260800190565b6000806000606084860312156137b157600080fd5b505081359360208301359350604090920135919050565b634e487b7160e01b600052603260045260246000fd5b60208082526021908201527f45524332305374616b696e673a20726f756e6420686173206e6f7420656e64656040820152601960fa1b606082015260800190565b634e487b7160e01b600052601160045260246000fd5b80820180821115610b0057610b0061381f565b60006001820161385a5761385a61381f565b5060010190565b8082028115828204841417610b0057610b0061381f565b60008261389557634e487b7160e01b600052601260045260246000fd5b500490565b81810381811115610b0057610b0061381f565b6000602082840312156138bf57600080fd5b8151801515811461325a57600080fd5b6001600160a01b039384168152919092166020820152604081019190915260600190565b634e487b7160e01b600052604160045260246000fd5b6020808252601f908201527f5265656e7472616e637947756172643a207265656e7472616e742063616c6c00604082015260600190565b60006020828403121561395257600080fd5b5051919050565b60208082526034908201527f526f756e64436f6e74726f6c3a2063616e277420737461727420726f756e64206040820152736265666f72652070726576696f757320656e647360601b606082015260800190565b6000816139bc576139bc61381f565b506000190190565b60005b838110156139df5781810151838201526020016139c7565b50506000910152565b7f416363657373436f6e74726f6c3a206163636f756e7420000000000000000000815260008351613a208160178501602088016139c4565b7001034b99036b4b9b9b4b733903937b6329607d1b6017918401918201528351613a518160288401602088016139c4565b01602801949350505050565b6020815260008251806020840152613a7c8160408501602087016139c4565b601f01601f1916919091016040019291505056fea26469706673582212202d65926eef69aa4566c518c5e354f5b89f6344f8531c4a8ea09248f5fc83498f64736f6c63430008110033",
  "linkReferences": {},
  "deployedLinkReferences": {}
}