{
  "_format": "hh-sol-artifact-1",
  "contractName": "ERC20Staking",
  "sourceName": "contracts/ERC20Staking.sol",
  "abi": [
    {
      "inputs": [
        {
          "internalType": "address",
          "name": "tokenAddress_",
          "type": "address"
        },
        {
          "internalType": "address",
          "name": "feeReceiver_",
          "type": "address"
        }
      ],
      "stateMutability": "nonpayable",
      "type": "constructor"
    },
    {
      "anonymous": false,
      "inputs": [
        {
          "indexed": false,
          "internalType": "address",
          "name": "delegator",
          "type": "address"
        },
        {
          "indexed": false,
          "internalType": "uint256",
          "name": "roundIndex",
          "type": "uint256"
        },
        {
          "indexed": false,
          "internalType": "uint256",
          "name": "tokenId",
          "type": "uint256"
        },
        {
          "indexed": false,
          "internalType": "uint256",
          "name": "amount",
          "type": "uint256"
        }
      ],
      "name": "Claim",
      "type": "event"
    },
    {
      "anonymous": false,
      "inputs": [
        {
          "indexed": false,
          "internalType": "address",
          "name": "delegator",
          "type": "address"
        },
        {
          "indexed": false,
          "internalType": "uint256",
          "name": "roundIndex",
          "type": "uint256"
        },
        {
          "indexed": false,
          "internalType": "uint256",
          "name": "amount",
          "type": "uint256"
        }
      ],
      "name": "ClaimRound",
      "type": "event"
    },
    {
      "anonymous": false,
      "inputs": [
        {
          "indexed": false,
          "internalType": "uint256",
          "name": "startTime",
          "type": "uint256"
        },
        {
          "indexed": false,
          "internalType": "uint256",
          "name": "duration",
          "type": "uint256"
        },
        {
          "indexed": false,
          "internalType": "uint256",
          "name": "endTime",
          "type": "uint256"
        },
        {
          "indexed": false,
          "internalType": "uint256",
          "name": "amountAllocated",
          "type": "uint256"
        },
        {
          "indexed": false,
          "internalType": "uint256",
          "name": "amountClaimed",
          "type": "uint256"
        }
      ],
      "name": "CreateRound",
      "type": "event"
    },
    {
      "anonymous": false,
      "inputs": [
        {
          "indexed": false,
          "internalType": "address",
          "name": "token",
          "type": "address"
        },
        {
          "indexed": false,
          "internalType": "address",
          "name": "feeReceiver",
          "type": "address"
        }
      ],
      "name": "DeployContract",
      "type": "event"
    },
    {
      "anonymous": false,
      "inputs": [
        {
          "indexed": false,
          "internalType": "address",
          "name": "delegator",
          "type": "address"
        },
        {
          "indexed": false,
          "internalType": "uint256",
          "name": "amount",
          "type": "uint256"
        },
        {
          "indexed": false,
          "internalType": "uint256",
          "name": "depositTime",
          "type": "uint256"
        },
        {
          "indexed": false,
          "internalType": "uint256",
          "name": "withdrawlTime",
          "type": "uint256"
        }
      ],
      "name": "DepositERC20",
      "type": "event"
    },
    {
      "anonymous": false,
      "inputs": [
        {
          "indexed": false,
          "internalType": "uint256",
          "name": "roundIndex",
          "type": "uint256"
        },
        {
          "indexed": false,
          "internalType": "uint256",
          "name": "amount",
          "type": "uint256"
        }
      ],
      "name": "DepositFunds",
      "type": "event"
    },
    {
      "anonymous": false,
      "inputs": [
        {
          "indexed": true,
          "internalType": "address",
          "name": "previousOwner",
          "type": "address"
        },
        {
          "indexed": true,
          "internalType": "address",
          "name": "newOwner",
          "type": "address"
        }
      ],
      "name": "OwnershipTransferred",
      "type": "event"
    },
    {
      "anonymous": false,
      "inputs": [
        {
          "indexed": false,
          "internalType": "uint256",
          "name": "depositIndex",
          "type": "uint256"
        }
      ],
      "name": "RescuedDeposit",
      "type": "event"
    },
    {
      "anonymous": false,
      "inputs": [
        {
          "indexed": false,
          "internalType": "uint256",
          "name": "amount",
          "type": "uint256"
        }
      ],
      "name": "RescuedETH",
      "type": "event"
    },
    {
      "anonymous": false,
      "inputs": [
        {
          "indexed": true,
          "internalType": "bytes32",
          "name": "role",
          "type": "bytes32"
        },
        {
          "indexed": true,
          "internalType": "bytes32",
          "name": "previousAdminRole",
          "type": "bytes32"
        },
        {
          "indexed": true,
          "internalType": "bytes32",
          "name": "newAdminRole",
          "type": "bytes32"
        }
      ],
      "name": "RoleAdminChanged",
      "type": "event"
    },
    {
      "anonymous": false,
      "inputs": [
        {
          "indexed": true,
          "internalType": "bytes32",
          "name": "role",
          "type": "bytes32"
        },
        {
          "indexed": true,
          "internalType": "address",
          "name": "account",
          "type": "address"
        },
        {
          "indexed": true,
          "internalType": "address",
          "name": "sender",
          "type": "address"
        }
      ],
      "name": "RoleGranted",
      "type": "event"
    },
    {
      "anonymous": false,
      "inputs": [
        {
          "indexed": true,
          "internalType": "bytes32",
          "name": "role",
          "type": "bytes32"
        },
        {
          "indexed": true,
          "internalType": "address",
          "name": "account",
          "type": "address"
        },
        {
          "indexed": true,
          "internalType": "address",
          "name": "sender",
          "type": "address"
        }
      ],
      "name": "RoleRevoked",
      "type": "event"
    },
    {
      "anonymous": false,
      "inputs": [
        {
          "indexed": false,
          "internalType": "uint256",
          "name": "cliff",
          "type": "uint256"
        }
      ],
      "name": "SetFeeCliff",
      "type": "event"
    },
    {
      "anonymous": false,
      "inputs": [
        {
          "indexed": false,
          "internalType": "uint256",
          "name": "rate",
          "type": "uint256"
        }
      ],
      "name": "SetFeeRate",
      "type": "event"
    },
    {
      "anonymous": false,
      "inputs": [
        {
          "indexed": false,
          "internalType": "address",
          "name": "receiver",
          "type": "address"
        }
      ],
      "name": "SetFeeReceiver",
      "type": "event"
    },
    {
      "anonymous": false,
      "inputs": [
        {
          "indexed": false,
          "internalType": "uint256",
          "name": "startTime",
          "type": "uint256"
        },
        {
          "indexed": false,
          "internalType": "uint256",
          "name": "duration",
          "type": "uint256"
        },
        {
          "indexed": false,
          "internalType": "uint256",
          "name": "endTime",
          "type": "uint256"
        },
        {
          "indexed": false,
          "internalType": "uint256",
          "name": "amountAllocated",
          "type": "uint256"
        },
        {
          "indexed": false,
          "internalType": "uint256",
          "name": "amountClaimed",
          "type": "uint256"
        }
      ],
      "name": "UpdateRound",
      "type": "event"
    },
    {
      "anonymous": false,
      "inputs": [
        {
          "indexed": false,
          "internalType": "address",
          "name": "sender",
          "type": "address"
        },
        {
          "indexed": false,
          "internalType": "uint256",
          "name": "amount",
          "type": "uint256"
        }
      ],
      "name": "WithdrawERC20",
      "type": "event"
    },
    {
      "inputs": [],
      "name": "DEFAULT_ADMIN_ROLE",
      "outputs": [
        {
          "internalType": "bytes32",
          "name": "",
          "type": "bytes32"
        }
      ],
      "stateMutability": "view",
      "type": "function"
    },
    {
      "inputs": [
        {
          "internalType": "uint256",
          "name": "roundIndex",
          "type": "uint256"
        }
      ],
      "name": "amountStakedForRound",
      "outputs": [
        {
          "internalType": "uint256",
          "name": "",
          "type": "uint256"
        }
      ],
      "stateMutability": "view",
      "type": "function"
    },
    {
      "inputs": [
        {
          "internalType": "uint256",
          "name": "roundIndex",
          "type": "uint256"
        },
        {
          "internalType": "address",
          "name": "address_",
          "type": "address"
        }
      ],
      "name": "amountStakedForRoundByAddress",
      "outputs": [
        {
          "internalType": "uint256",
          "name": "",
          "type": "uint256"
        }
      ],
      "stateMutability": "view",
      "type": "function"
    },
    {
      "inputs": [
        {
          "internalType": "address",
          "name": "",
          "type": "address"
        }
      ],
      "name": "balanceOf",
      "outputs": [
        {
          "internalType": "uint256",
          "name": "",
          "type": "uint256"
        }
      ],
      "stateMutability": "view",
      "type": "function"
    },
    {
      "inputs": [
        {
          "internalType": "uint256",
          "name": "roundIndex_",
          "type": "uint256"
        }
      ],
      "name": "claimForRound",
      "outputs": [],
      "stateMutability": "nonpayable",
      "type": "function"
    },
    {
      "inputs": [
        {
          "internalType": "uint256",
          "name": "roundIndex_",
          "type": "uint256"
        },
        {
          "internalType": "uint256",
          "name": "depositIndex",
          "type": "uint256"
        }
      ],
      "name": "claimForRoundByDeposit",
      "outputs": [],
      "stateMutability": "nonpayable",
      "type": "function"
    },
    {
      "inputs": [
        {
          "internalType": "uint256",
          "name": "",
          "type": "uint256"
        },
        {
          "internalType": "uint256",
          "name": "",
          "type": "uint256"
        }
      ],
      "name": "claims",
      "outputs": [
        {
          "internalType": "uint256",
          "name": "",
          "type": "uint256"
        }
      ],
      "stateMutability": "view",
      "type": "function"
    },
    {
      "inputs": [],
      "name": "countActiveDeposits",
      "outputs": [
        {
          "internalType": "uint256",
          "name": "",
          "type": "uint256"
        }
      ],
      "stateMutability": "view",
      "type": "function"
    },
    {
      "inputs": [],
      "name": "countAllDeposits",
      "outputs": [
        {
          "internalType": "uint256",
          "name": "",
          "type": "uint256"
        }
      ],
      "stateMutability": "view",
      "type": "function"
    },
    {
      "inputs": [
        {
          "internalType": "uint256",
          "name": "roundIndex",
          "type": "uint256"
        }
      ],
      "name": "countDepositsForRound",
      "outputs": [
        {
          "internalType": "uint256",
          "name": "",
          "type": "uint256"
        }
      ],
      "stateMutability": "view",
      "type": "function"
    },
    {
      "inputs": [
        {
          "internalType": "uint256",
          "name": "roundIndex",
          "type": "uint256"
        },
        {
          "internalType": "address",
          "name": "address_",
          "type": "address"
        }
      ],
      "name": "countDepositsForRoundByAddress",
      "outputs": [
        {
          "internalType": "uint256",
          "name": "",
          "type": "uint256"
        }
      ],
      "stateMutability": "view",
      "type": "function"
    },
    {
      "inputs": [],
      "name": "countWithdrawnDeposits",
      "outputs": [
        {
          "internalType": "uint256",
          "name": "",
          "type": "uint256"
        }
      ],
      "stateMutability": "view",
      "type": "function"
    },
    {
      "inputs": [
        {
          "internalType": "uint256",
          "name": "startTime_",
          "type": "uint256"
        },
        {
          "internalType": "uint256",
          "name": "duration_",
          "type": "uint256"
        }
      ],
      "name": "createRound",
      "outputs": [],
      "stateMutability": "nonpayable",
      "type": "function"
    },
    {
      "inputs": [],
      "name": "currentRoundIndex",
      "outputs": [
        {
          "internalType": "uint256",
          "name": "",
          "type": "uint256"
        }
      ],
      "stateMutability": "view",
      "type": "function"
    },
    {
      "inputs": [
        {
          "internalType": "uint256",
          "name": "roundIndex_",
          "type": "uint256"
        },
        {
          "internalType": "uint256",
          "name": "amount_",
          "type": "uint256"
        }
      ],
      "name": "depositFunds",
      "outputs": [],
      "stateMutability": "payable",
      "type": "function"
    },
    {
      "inputs": [
        {
          "internalType": "address",
          "name": "address_",
          "type": "address"
        }
      ],
      "name": "depositIndexesByAddress",
      "outputs": [
        {
          "internalType": "uint256[]",
          "name": "",
          "type": "uint256[]"
        }
      ],
      "stateMutability": "view",
      "type": "function"
    },
    {
      "inputs": [
        {
          "internalType": "uint256",
          "name": "roundIndex",
          "type": "uint256"
        }
      ],
      "name": "depositIndexesForRound",
      "outputs": [
        {
          "internalType": "uint256[]",
          "name": "",
          "type": "uint256[]"
        }
      ],
      "stateMutability": "view",
      "type": "function"
    },
    {
      "inputs": [
        {
          "internalType": "uint256",
          "name": "roundIndex",
          "type": "uint256"
        },
        {
          "internalType": "address",
          "name": "address_",
          "type": "address"
        }
      ],
      "name": "depositIndexesForRoundByAddress",
      "outputs": [
        {
          "internalType": "uint256[]",
          "name": "",
          "type": "uint256[]"
        }
      ],
      "stateMutability": "view",
      "type": "function"
    },
    {
      "inputs": [
        {
          "internalType": "uint256",
          "name": "amount",
          "type": "uint256"
        }
      ],
      "name": "depositToken",
      "outputs": [],
      "stateMutability": "nonpayable",
      "type": "function"
    },
    {
      "inputs": [],
      "name": "depositedETH",
      "outputs": [
        {
          "internalType": "uint256",
          "name": "",
          "type": "uint256"
        }
      ],
      "stateMutability": "view",
      "type": "function"
    },
    {
      "inputs": [
        {
          "internalType": "uint256",
          "name": "",
          "type": "uint256"
        }
      ],
      "name": "deposits",
      "outputs": [
        {
          "internalType": "address",
          "name": "delegator",
          "type": "address"
        },
        {
          "internalType": "uint256",
          "name": "amount",
          "type": "uint256"
        },
        {
          "internalType": "uint256",
          "name": "depositTime",
          "type": "uint256"
        },
        {
          "internalType": "uint256",
          "name": "withdrawlTime",
          "type": "uint256"
        }
      ],
      "stateMutability": "view",
      "type": "function"
    },
    {
      "inputs": [
        {
          "internalType": "uint256",
          "name": "roundIndex",
          "type": "uint256"
        },
        {
          "internalType": "address",
          "name": "address_",
          "type": "address"
        }
      ],
      "name": "ethAllocForRoundByAddress",
      "outputs": [
        {
          "internalType": "uint256",
          "name": "",
          "type": "uint256"
        }
      ],
      "stateMutability": "view",
      "type": "function"
    },
    {
      "inputs": [
        {
          "internalType": "uint256",
          "name": "roundIndex",
          "type": "uint256"
        },
        {
          "internalType": "uint256",
          "name": "depositIndex",
          "type": "uint256"
        }
      ],
      "name": "ethAllocForRoundByDeposit",
      "outputs": [
        {
          "internalType": "uint256",
          "name": "",
          "type": "uint256"
        }
      ],
      "stateMutability": "view",
      "type": "function"
    },
    {
      "inputs": [
        {
          "internalType": "uint256",
          "name": "roundIndex",
          "type": "uint256"
        },
        {
          "internalType": "address",
          "name": "address_",
          "type": "address"
        }
      ],
      "name": "ethClaimedForRoundByAddress",
      "outputs": [
        {
          "internalType": "uint256",
          "name": "",
          "type": "uint256"
        }
      ],
      "stateMutability": "view",
      "type": "function"
    },
    {
      "inputs": [
        {
          "internalType": "uint256",
          "name": "roundIndex",
          "type": "uint256"
        },
        {
          "internalType": "uint256",
          "name": "depositIndex",
          "type": "uint256"
        }
      ],
      "name": "ethClaimedForRoundByDeposit",
      "outputs": [
        {
          "internalType": "uint256",
          "name": "",
          "type": "uint256"
        }
      ],
      "stateMutability": "view",
      "type": "function"
    },
    {
      "inputs": [
        {
          "internalType": "uint256",
          "name": "roundIndex",
          "type": "uint256"
        },
        {
          "internalType": "address",
          "name": "address_",
          "type": "address"
        }
      ],
      "name": "ethUnclaimedForRoundByAddress",
      "outputs": [
        {
          "internalType": "uint256",
          "name": "",
          "type": "uint256"
        }
      ],
      "stateMutability": "view",
      "type": "function"
    },
    {
      "inputs": [
        {
          "internalType": "uint256",
          "name": "roundIndex",
          "type": "uint256"
        },
        {
          "internalType": "uint256",
          "name": "depositIndex",
          "type": "uint256"
        }
      ],
      "name": "ethUnclaimedForRoundByDeposit",
      "outputs": [
        {
          "internalType": "uint256",
          "name": "",
          "type": "uint256"
        }
      ],
      "stateMutability": "view",
      "type": "function"
    },
    {
      "inputs": [],
      "name": "feeCliff",
      "outputs": [
        {
          "internalType": "uint256",
          "name": "",
          "type": "uint256"
        }
      ],
      "stateMutability": "view",
      "type": "function"
    },
    {
      "inputs": [
        {
          "internalType": "address",
          "name": "address_",
          "type": "address"
        }
      ],
      "name": "feeForAddress",
      "outputs": [
        {
          "internalType": "uint256",
          "name": "",
          "type": "uint256"
        }
      ],
      "stateMutability": "view",
      "type": "function"
    },
    {
      "inputs": [
        {
          "internalType": "uint256",
          "name": "depositIndex",
          "type": "uint256"
        }
      ],
      "name": "feeForDeposit",
      "outputs": [
        {
          "internalType": "uint256",
          "name": "",
          "type": "uint256"
        }
      ],
      "stateMutability": "view",
      "type": "function"
    },
    {
      "inputs": [],
      "name": "feeRate",
      "outputs": [
        {
          "internalType": "uint256",
          "name": "",
          "type": "uint256"
        }
      ],
      "stateMutability": "view",
      "type": "function"
    },
    {
      "inputs": [],
      "name": "feeReceiver",
      "outputs": [
        {
          "internalType": "address",
          "name": "",
          "type": "address"
        }
      ],
      "stateMutability": "view",
      "type": "function"
    },
    {
      "inputs": [
        {
          "internalType": "bytes32",
          "name": "role",
          "type": "bytes32"
        }
      ],
      "name": "getRoleAdmin",
      "outputs": [
        {
          "internalType": "bytes32",
          "name": "",
          "type": "bytes32"
        }
      ],
      "stateMutability": "view",
      "type": "function"
    },
    {
      "inputs": [
        {
          "internalType": "bytes32",
          "name": "role",
          "type": "bytes32"
        },
        {
          "internalType": "address",
          "name": "account",
          "type": "address"
        }
      ],
      "name": "grantRole",
      "outputs": [],
      "stateMutability": "nonpayable",
      "type": "function"
    },
    {
      "inputs": [
        {
          "internalType": "bytes32",
          "name": "role",
          "type": "bytes32"
        },
        {
          "internalType": "address",
          "name": "account",
          "type": "address"
        }
      ],
      "name": "hasRole",
      "outputs": [
        {
          "internalType": "bool",
          "name": "",
          "type": "bool"
        }
      ],
      "stateMutability": "view",
      "type": "function"
    },
    {
      "inputs": [],
      "name": "nbRounds",
      "outputs": [
        {
          "internalType": "uint256",
          "name": "",
          "type": "uint256"
        }
      ],
      "stateMutability": "view",
      "type": "function"
    },
    {
      "inputs": [],
      "name": "owner",
      "outputs": [
        {
          "internalType": "address",
          "name": "",
          "type": "address"
        }
      ],
      "stateMutability": "view",
      "type": "function"
    },
    {
      "inputs": [],
      "name": "renounceOwnership",
      "outputs": [],
      "stateMutability": "nonpayable",
      "type": "function"
    },
    {
      "inputs": [
        {
          "internalType": "bytes32",
          "name": "role",
          "type": "bytes32"
        },
        {
          "internalType": "address",
          "name": "account",
          "type": "address"
        }
      ],
      "name": "renounceRole",
      "outputs": [],
      "stateMutability": "nonpayable",
      "type": "function"
    },
    {
      "inputs": [
        {
          "internalType": "uint256",
          "name": "depositIndex",
          "type": "uint256"
        }
      ],
      "name": "rescueDeposit",
      "outputs": [],
      "stateMutability": "nonpayable",
      "type": "function"
    },
    {
      "inputs": [
        {
          "internalType": "uint256",
          "name": "amount",
          "type": "uint256"
        }
      ],
      "name": "rescueETH",
      "outputs": [],
      "stateMutability": "nonpayable",
      "type": "function"
    },
    {
      "inputs": [
        {
          "internalType": "bytes32",
          "name": "role",
          "type": "bytes32"
        },
        {
          "internalType": "address",
          "name": "account",
          "type": "address"
        }
      ],
      "name": "revokeRole",
      "outputs": [],
      "stateMutability": "nonpayable",
      "type": "function"
    },
    {
      "inputs": [
        {
          "internalType": "uint256",
          "name": "",
          "type": "uint256"
        }
      ],
      "name": "rounds",
      "outputs": [
        {
          "internalType": "uint256",
          "name": "startTime",
          "type": "uint256"
        },
        {
          "internalType": "uint256",
          "name": "duration",
          "type": "uint256"
        },
        {
          "internalType": "uint256",
          "name": "endTime",
          "type": "uint256"
        },
        {
          "internalType": "uint256",
          "name": "amountAllocated",
          "type": "uint256"
        },
        {
          "internalType": "uint256",
          "name": "amountClaimed",
          "type": "uint256"
        }
      ],
      "stateMutability": "view",
      "type": "function"
    },
    {
      "inputs": [
        {
          "internalType": "uint256",
          "name": "cliff",
          "type": "uint256"
        }
      ],
      "name": "setFeeCliff",
      "outputs": [],
      "stateMutability": "nonpayable",
      "type": "function"
    },
    {
      "inputs": [
        {
          "internalType": "uint256",
          "name": "rate",
          "type": "uint256"
        }
      ],
      "name": "setFeeRate",
      "outputs": [],
      "stateMutability": "nonpayable",
      "type": "function"
    },
    {
      "inputs": [
        {
          "internalType": "address",
          "name": "feeReceiver_",
          "type": "address"
        }
      ],
      "name": "setFeeReceiver",
      "outputs": [],
      "stateMutability": "nonpayable",
      "type": "function"
    },
    {
      "inputs": [
        {
          "internalType": "bytes4",
          "name": "interfaceId",
          "type": "bytes4"
        }
      ],
      "name": "supportsInterface",
      "outputs": [
        {
          "internalType": "bool",
          "name": "",
          "type": "bool"
        }
      ],
      "stateMutability": "view",
      "type": "function"
    },
    {
      "inputs": [],
      "name": "token",
      "outputs": [
        {
          "internalType": "contract IERC20",
          "name": "",
          "type": "address"
        }
      ],
      "stateMutability": "view",
      "type": "function"
    },
    {
      "inputs": [],
      "name": "totalSupply",
      "outputs": [
        {
          "internalType": "uint256",
          "name": "",
          "type": "uint256"
        }
      ],
      "stateMutability": "view",
      "type": "function"
    },
    {
      "inputs": [
        {
          "internalType": "address",
          "name": "newOwner",
          "type": "address"
        }
      ],
      "name": "transferOwnership",
      "outputs": [],
      "stateMutability": "nonpayable",
      "type": "function"
    },
    {
      "inputs": [
        {
          "internalType": "uint256",
          "name": "roundIndex_",
          "type": "uint256"
        },
        {
          "internalType": "uint256",
          "name": "startTime_",
          "type": "uint256"
        },
        {
          "internalType": "uint256",
          "name": "duration_",
          "type": "uint256"
        }
      ],
      "name": "updateRound",
      "outputs": [],
      "stateMutability": "nonpayable",
      "type": "function"
    },
    {
      "inputs": [
        {
          "internalType": "uint256",
          "name": "roundIndex",
          "type": "uint256"
        },
        {
          "internalType": "uint256",
          "name": "depositIndex",
          "type": "uint256"
        }
      ],
      "name": "weightedAverageForDeposit",
      "outputs": [
        {
          "internalType": "uint256",
          "name": "",
          "type": "uint256"
        }
      ],
      "stateMutability": "view",
      "type": "function"
    },
    {
      "inputs": [
        {
          "internalType": "uint256",
          "name": "roundIndex",
          "type": "uint256"
        },
        {
          "internalType": "address",
          "name": "address_",
          "type": "address"
        }
      ],
      "name": "weightedAverageForRoundByAddress",
      "outputs": [
        {
          "internalType": "uint256",
          "name": "",
          "type": "uint256"
        }
      ],
      "stateMutability": "view",
      "type": "function"
    },
    {
      "inputs": [],
      "name": "withdrawAll",
      "outputs": [],
      "stateMutability": "nonpayable",
      "type": "function"
    },
    {
      "inputs": [
        {
          "internalType": "uint256",
          "name": "depositIndex",
          "type": "uint256"
        }
      ],
      "name": "withdrawByDeposit",
      "outputs": [],
      "stateMutability": "nonpayable",
      "type": "function"
    },
    {
      "stateMutability": "payable",
      "type": "receive"
    }
  ],
  "bytecode": "0x60806040526000600555601960095562278d00600a553480156200002257600080fd5b506040516200414338038062004143833981016040819052620000459162000527565b62000050336200016a565b6200005d600033620001ba565b60016003556001600160a01b038216620000d25760405162461bcd60e51b815260206004820152602b60248201527f45524332305374616b696e673a2045524332302063616e206e6f74206265206160448201526a646472657373207a65726f60a81b60648201526084015b60405180910390fd5b600480546001600160a01b0319166001600160a01b0384161790556200010c6000620001066000546001600160a01b031690565b620001ba565b620001178162000229565b600454600b54604080516001600160a01b0393841681529290911660208301527f6cbd957809e2aaf4d5e36136d06e71215f53a984b218c6d501e22f91d348d9ce910160405180910390a15050620006bf565b600080546001600160a01b038381166001600160a01b0319831681178455604051919092169283917f8be0079c531659141344cd1fd0a4f28419497f9722a3daafe3b4186f6b6457e09190a35050565b620001c682826200028b565b620002255760008281526001602081815260408084206001600160a01b0386168086529252808420805460ff19169093179092559051339285917f2f8788117e7eff1d82e926ec794901d17c78024a50270940304540a733656f0d9190a45b5050565b60006200023681620002b8565b600b80546001600160a01b0319166001600160a01b0384169081179091556040519081527fffb40bfdfd246e95f543d08d9713c339f1d90fa9265e39b4f562f9011d7c919f9060200160405180910390a15050565b60008281526001602090815260408083206001600160a01b038516845290915290205460ff165b92915050565b620002c48133620002c7565b50565b620002d382826200028b565b6200022557620002f9816001600160a01b031660146200034a60201b6200306c1760201c565b6200030f8360206200306c6200034a821b17811c565b6040516020016200032292919062000585565b60408051601f198184030181529082905262461bcd60e51b8252620000c991600401620005fe565b606060006200035b83600262000649565b6200036890600262000663565b6001600160401b0381111562000382576200038262000679565b6040519080825280601f01601f191660200182016040528015620003ad576020820181803683370190505b509050600360fc1b81600081518110620003cb57620003cb6200068f565b60200101906001600160f81b031916908160001a905350600f60fb1b81600181518110620003fd57620003fd6200068f565b60200101906001600160f81b031916908160001a90535060006200042384600262000649565b6200043090600162000663565b90505b6001811115620004b2576f181899199a1a9b1b9c1cb0b131b232b360811b85600f16601081106200046857620004686200068f565b1a60f81b8282815181106200048157620004816200068f565b60200101906001600160f81b031916908160001a90535060049490941c93620004aa81620006a5565b905062000433565b508315620005035760405162461bcd60e51b815260206004820181905260248201527f537472696e67733a20686578206c656e67746820696e73756666696369656e746044820152606401620000c9565b9392505050565b80516001600160a01b03811681146200052257600080fd5b919050565b600080604083850312156200053b57600080fd5b62000546836200050a565b915062000556602084016200050a565b90509250929050565b60005b838110156200057c57818101518382015260200162000562565b50506000910152565b7f416363657373436f6e74726f6c3a206163636f756e7420000000000000000000815260008351620005bf8160178501602088016200055f565b7001034b99036b4b9b9b4b733903937b6329607d1b6017918401918201528351620005f28160288401602088016200055f565b01602801949350505050565b60208152600082518060208401526200061f8160408501602087016200055f565b601f01601f19169190910160400192915050565b634e487b7160e01b600052601160045260246000fd5b8082028115828204841417620002b257620002b262000633565b80820180821115620002b257620002b262000633565b634e487b7160e01b600052604160045260246000fd5b634e487b7160e01b600052603260045260246000fd5b600081620006b757620006b762000633565b506000190190565b613a7480620006cf6000396000f3fe6080604052600436106103545760003560e01c8063853828b6116101c6578063b0f2d461116100f7578063e6abc78911610095578063f2f8ffa61161006f578063f2f8ffa6146109e5578063f2fde38b14610a05578063f894160e14610a25578063fc0c546a14610a5d57600080fd5b8063e6abc7891461099b578063ecf0a76b146109b0578063efdcd974146109c557600080fd5b8063bc35c902116100d1578063bc35c9021461091b578063c6e1e7321461093b578063d547741f1461095b578063e1affd051461097b57600080fd5b8063b0f2d461146108bb578063b3f00674146108db578063b883457c146108fb57600080fd5b8063a217fddf11610164578063a96ea32d1161013e578063a96ea32d14610836578063ad42ac5414610856578063aedc625d1461086b578063b02c43d01461088b57600080fd5b8063a217fddf146107c9578063a75e8271146107de578063a90bcbe5146107fe57600080fd5b806391d14854116101a057806391d1485414610753578063978bbdb9146107735780639e252f0014610789578063a1215c3b146107a957600080fd5b8063853828b6146106c45780638c65c81f146106d95780638da5cb5b1461072157600080fd5b8063443c4b67116102a05780636896ef4b1161023e578063715018a611610218578063715018a61461064f5780638177a15814610664578063848ee75f1461068457806384e6dd95146106a457600080fd5b80636896ef4b146105ed5780636dfe8aaa1461060257806370a082311461062257600080fd5b806353244cf51161027a57806353244cf51461057a5780635507219f1461059a57806361638ed5146105ba5780636215be77146105cd57600080fd5b8063443c4b671461052457806345596e2e146105445780634ae791c41461056457600080fd5b80632692020d1161030d57806336568abe116102e757806336568abe146104b95780633fdd47d9146104d9578063416227ee146104ef57806341e13d271461050f57600080fd5b80632692020d1461044c5780632f2ff15d1461046c57806334610ee61461048c57600080fd5b806301ffc9a7146103605780630dd0836d146103955780631517422f146103b757806318160ddd146103e5578063203070d7146103fb578063248a9ca31461041b57600080fd5b3661035b57005b600080fd5b34801561036c57600080fd5b5061038061037b366004613618565b610a7d565b60405190151581526020015b60405180910390f35b3480156103a157600080fd5b506103b56103b0366004613642565b610ab4565b005b3480156103c357600080fd5b506103d76103d236600461365b565b610c7c565b60405190815260200161038c565b3480156103f157600080fd5b506103d760055481565b34801561040757600080fd5b506103b5610416366004613642565b610cda565b34801561042757600080fd5b506103d7610436366004613642565b6000908152600160208190526040909120015490565b34801561045857600080fd5b506103d7610467366004613642565b610ef7565b34801561047857600080fd5b506103b5610487366004613699565b610f7e565b34801561049857600080fd5b506104ac6104a7366004613699565b610fa9565b60405161038c91906136c5565b3480156104c557600080fd5b506103b56104d4366004613699565b611155565b3480156104e557600080fd5b506103d7600a5481565b3480156104fb57600080fd5b506103d761050a366004613699565b6111d3565b34801561051b57600080fd5b506103d7611253565b34801561053057600080fd5b506103d761053f36600461365b565b611296565b34801561055057600080fd5b506103b561055f366004613642565b61143f565b34801561057057600080fd5b506103d7600c5481565b34801561058657600080fd5b506103d7610595366004613699565b6114f6565b3480156105a657600080fd5b506103d76105b5366004613699565b61155f565b6103b56105c836600461365b565b6115d7565b3480156105d957600080fd5b506103b56105e8366004613642565b61177e565b3480156105f957600080fd5b506103d7611a62565b34801561060e57600080fd5b506103b561061d36600461365b565b611b11565b34801561062e57600080fd5b506103d761063d366004613709565b60066020526000908152604090205481565b34801561065b57600080fd5b506103b5611d26565b34801561067057600080fd5b506103d761067f36600461365b565b611d3a565b34801561069057600080fd5b506103b561069f36600461365b565b611d6e565b3480156106b057600080fd5b506103d76106bf366004613699565b611ee5565b3480156106d057600080fd5b506103b5611f49565b3480156106e557600080fd5b506106f96106f4366004613642565b612277565b604080519586526020860194909452928401919091526060830152608082015260a00161038c565b34801561072d57600080fd5b506000546001600160a01b03165b6040516001600160a01b03909116815260200161038c565b34801561075f57600080fd5b5061038061076e366004613699565b6122b8565b34801561077f57600080fd5b506103d760095481565b34801561079557600080fd5b506103b56107a4366004613642565b6122e3565b3480156107b557600080fd5b506103d76107c4366004613642565b6123bb565b3480156107d557600080fd5b506103d7600081565b3480156107ea57600080fd5b506103d76107f9366004613642565b6123cd565b34801561080a57600080fd5b506103d761081936600461365b565b600091825260086020908152604080842092845291905290205490565b34801561084257600080fd5b506104ac610851366004613709565b612478565b34801561086257600080fd5b506103d76125f6565b34801561087757600080fd5b506103d7610886366004613699565b612632565b34801561089757600080fd5b506108ab6108a6366004613642565b612646565b60405161038c9493929190613724565b3480156108c757600080fd5b506103d76108d6366004613709565b61268a565b3480156108e757600080fd5b50600b5461073b906001600160a01b031681565b34801561090757600080fd5b506104ac610916366004613642565b6126ec565b34801561092757600080fd5b506103b5610936366004613642565b6128e0565b34801561094757600080fd5b506103b561095636600461374a565b612999565b34801561096757600080fd5b506103b5610976366004613699565b612c3c565b34801561098757600080fd5b506103b5610996366004613642565b612c62565b3480156109a757600080fd5b506002546103d7565b3480156109bc57600080fd5b506007546103d7565b3480156109d157600080fd5b506103b56109e0366004613709565b612f36565b3480156109f157600080fd5b506103d7610a00366004613699565b612f8f565b348015610a1157600080fd5b506103b5610a20366004613709565b612ff3565b348015610a3157600080fd5b506103d7610a4036600461365b565b600860209081526000928352604080842090915290825290205481565b348015610a6957600080fd5b5060045461073b906001600160a01b031681565b60006001600160e01b03198216637965db0b60e01b1480610aae57506301ffc9a760e01b6001600160e01b03198316145b92915050565b600060028281548110610ac957610ac9613776565b9060005260206000209060050201905080600201544211610b055760405162461bcd60e51b8152600401610afc9061378c565b60405180910390fd5b6000610b118333610fa9565b90506000805b8251811015610c29576000838281518110610b3457610b34613776565b60200260200101519050600060078281548110610b5357610b53613776565b600091825260209182902060408051608081018252600490930290910180546001600160a01b031680845260018201549484019490945260028101549183019190915260030154606082015291503314610bac57600080fd5b6000610bb88884611d3a565b6000898152600860209081526040808320878452909152812080549293508392909190610be69084906137e3565b9250508190555080876004016000828254610c0191906137e3565b90915550610c11905081866137e3565b94505050508080610c21906137f6565b915050610b17565b50610c34338261320f565b60408051338152602081018690529081018290527ffe40676cc8b72f39e6dd6a87a278f3c5a80e8092ba4ff4da20ca47079de3003f906060015b60405180910390a150505050565b60008060028481548110610c9257610c92613776565b90600052602060002090600502016003015490506000610cb28585611296565b9050670de0b6b3a7640000610cc7828461380f565b610cd19190613826565b95945050505050565b6000610ce581613328565b610cee82613332565b610d4a5760405162461bcd60e51b815260206004820152602760248201527f45524332305374616b696e673a206465706f73697420616c72656164792077696044820152663a34323930bbb760c91b6064820152608401610afc565b600060078381548110610d5f57610d5f613776565b90600052602060002090600402019050428160030181905550806001015460056000828254610d8e9190613848565b9091555050600181015481546001600160a01b031660009081526006602052604081208054909190610dc1908490613848565b909155505060048054600183015460405163095ea7b360e01b8152309381019390935260248301526001600160a01b03169063095ea7b3906044016020604051808303816000875af1158015610e1b573d6000803e3d6000fd5b505050506040513d601f19601f82011682018060405250810190610e3f919061385b565b5060048054825460018401546040516323b872dd60e01b81526001600160a01b03938416946323b872dd94610e7b94309491169290910161387d565b6020604051808303816000875af1158015610e9a573d6000803e3d6000fd5b505050506040513d601f19601f82011682018060405250810190610ebe919061385b565b506040518381527f40b98a7641e0f30866617d8f95f35b2e77b8a97b5fed81aff84b5a3ccd893ade9060200160405180910390a1505050565b600080610f03836126ec565b90506000805b8251811015610f76576000838281518110610f2657610f26613776565b6020026020010151905060078181548110610f4357610f43613776565b90600052602060002090600402016001015483610f6091906137e3565b9250508080610f6e906137f6565b915050610f09565b509392505050565b60008281526001602081905260409091200154610f9a81613328565b610fa48383613364565b505050565b60606000610fb6846126ec565b604080516000808252602082019092529192505b825181101561114c576000838281518110610fe757610fe7613776565b6020026020010151905060006007828154811061100657611006613776565b600091825260209182902060408051608081018252600490930290910180546001600160a01b03908116808552600183015495850195909552600282015492840192909252600301546060830152909250881690036111375760008451600161106f91906137e3565b67ffffffffffffffff811115611087576110876138a1565b6040519080825280602002602001820160405280156110b0578160200160208202803683370190505b50905060005b8551811015611108578581815181106110d1576110d1613776565b60200260200101518282815181106110eb576110eb613776565b602090810291909101015280611100816137f6565b9150506110b6565b508281600183516111199190613848565b8151811061112957611129613776565b602090810291909101015293505b50508080611144906137f6565b915050610fca565b50949350505050565b6001600160a01b03811633146111c55760405162461bcd60e51b815260206004820152602f60248201527f416363657373436f6e74726f6c3a2063616e206f6e6c792072656e6f756e636560448201526e103937b632b9903337b91039b2b63360891b6064820152608401610afc565b6111cf82826133cf565b5050565b6000806111e08484610fa9565b90506000805b825181101561114c57600083828151811061120357611203613776565b602002602001015190506007818154811061122057611220613776565b9060005260206000209060040201600101548361123d91906137e3565b925050808061124b906137f6565b9150506111e6565b600080805b6007548110156112905761126b81613332565b1561127e578161127a816137f6565b9250505b80611288816137f6565b915050611258565b50919050565b6000806112a2846126ec565b90506000600285815481106112b9576112b9613776565b90600052602060002090600502016040518060a001604052908160008201548152602001600182015481526020016002820154815260200160038201548152602001600482015481525050905060008060008060005b86518110156113f257600087828151811061132c5761132c613776565b6020026020010151905060006007828154811061134b5761134b613776565b6000918252602080832060408051608081018252600490940290910180546001600160a01b03168452600181015492840192909252600282015483820181905260039092015460608401528b51908c01519294506113aa929091613436565b90506113b681886137e3565b96508160200151886113c891906137e3565b97508b83036113dc57809450816020015195505b50505080806113ea906137f6565b91505061130f565b5060006113ff848661380f565b875161140b848661380f565b61141d90670de0b6b3a764000061380f565b611427919061380f565b6114319190613826565b9a9950505050505050505050565b600061144a81613328565b60198211156114b95760405162461bcd60e51b815260206004820152603560248201527f45524332305374616b696e673a204665652072617465206d757374206265206c604482015274657373207468616e204d41585f4645455f5241544560581b6064820152608401610afc565b60098290556040518281527f6717373928cccf59cc9912055cfa8db86e7085b95c94c15862b121114aa333be906020015b60405180910390a15050565b6000806115038484610fa9565b90506000805b825181101561114c57600083828151811061152657611526613776565b60200260200101519050600061153c8883611296565b905061154881856137e3565b935050508080611557906137f6565b915050611509565b60008061156c8484610fa9565b90506000805b825181101561114c57600083828151811061158f5761158f613776565b602090810291909101810151600089815260088352604080822083835290935291909120549091506115c190846137e3565b92505080806115cf906137f6565b915050611572565b60006115e281613328565b600254831061163d5760405162461bcd60e51b815260206004820152602160248201527f45524332305374616b696e673a20726f756e6420646f65736e277420657869736044820152601d60fa1b6064820152608401610afc565b6000341161168d5760405162461bcd60e51b815260206004820181905260248201527f45524332305374616b696e673a204d75737420696e636c7564652066756e64736044820152606401610afc565b3482146116eb5760405162461bcd60e51b815260206004820152602660248201527f45524332305374616b696e673a2046756e647320646f6e2774206d6174636820604482015265185b5bdd5b9d60d21b6064820152608401610afc565b60006002848154811061170057611700613776565b906000526020600020906005020190503481600301600082825461172491906137e3565b9250508190555034600c600082825461173d91906137e3565b909155505060038101546040805186815260208101929092527fc30d09038cdea01854d3b58940393d97d881e83f40ddc3a8225f32e76b584b149101610c6e565b6002600354036117a05760405162461bcd60e51b8152600401610afc906138b7565b6002600355600480546040516370a0823160e01b8152339281019290925282916001600160a01b03909116906370a0823190602401602060405180830381865afa1580156117f2573d6000803e3d6000fd5b505050506040513d601f19601f8201168201806040525081019061181691906138ee565b101561187a5760405162461bcd60e51b815260206004820152602d60248201527f45524332305374616b696e673a2063616e2774206465706f736974206d6f726560448201526c103a3430b7103cb7ba9037bbb760991b6064820152608401610afc565b600480546040516323b872dd60e01b81526001600160a01b03909116916323b872dd916118ad913391309187910161387d565b6020604051808303816000875af11580156118cc573d6000803e3d6000fd5b505050506040513d601f19601f820116820180604052508101906118f0919061385b565b50806005600082825461190391906137e3565b909155505033600090815260066020526040812080548392906119279084906137e3565b9091555050604080516080810182523381526020810183815242828401908152600019606084019081526007805460018101825560009190915284517fa66cc928b5edb82af9bd49922954155ab7b0942694bea4ce44661d9a8736c688600490920291820180546001600160a01b0319166001600160a01b03831617905593517fa66cc928b5edb82af9bd49922954155ab7b0942694bea4ce44661d9a8736c689820181905592517fa66cc928b5edb82af9bd49922954155ab7b0942694bea4ce44661d9a8736c68a820181905591517fa66cc928b5edb82af9bd49922954155ab7b0942694bea4ce44661d9a8736c68b909101819055945193947f671f7c71634bb58a69d818c598151563dd0a47f03edb950e59c85246fa9ceea894611a519493929190613724565b60405180910390a150506001600355565b6000805b600254811015611b0857600060028281548110611a8557611a85613776565b90600052602060002090600502016040518060a001604052908160008201548152602001600182015481526020016002820154815260200160038201548152602001600482015481525050905042816000015111158015611aea575042816040015110155b15611af55750919050565b5080611b00816137f6565b915050611a66565b50600019905090565b600060028381548110611b2657611b26613776565b9060005260206000209060050201905080600201544211611b595760405162461bcd60e51b8152600401610afc9061378c565b600060078381548110611b6e57611b6e613776565b600091825260209182902060408051608081018252600490930290910180546001600160a01b031680845260018201549484019490945260028101549183019190915260030154606082015291503314611c1e5760405162461bcd60e51b815260206004820152602b60248201527f45524332305374616b696e673a2073656e646572206973206e6f74207468652060448201526a3a37b5b2b71037bbb732b960a91b6064820152608401610afc565b6000611c2a8585611d3a565b905060008111611c8c5760405162461bcd60e51b815260206004820152602760248201527f45524332305374616b696e673a207468657265206973206e6f7468696e6720746044820152666f20636c61696d60c81b6064820152608401610afc565b8151611c98908261320f565b600085815260086020908152604080832087845290915281208054839290611cc19084906137e3565b9250508190555080836004016000828254611cdc91906137e3565b909155505081516040517f45c072aa05b9853b5a993de7a28bc332ee01404a628cec1a23ce0f659f842ef191611d1791889088908690613724565b60405180910390a15050505050565b611d2e613456565b611d3860006134b0565b565b600080611d478484610c7c565b6000858152600860209081526040808320878452909152902054909150610cd18183613848565b6000611d7981613328565b6000611d8583856137e3565b9050611d9084613500565b6040805160a0810182528581526020810185815281830184815260006060840181815260808501828152600280546001810182559352855160059093027f405787fa12a823e0f2b7631cc41b3ba8828b3321ca811111fa75cd3aa3bb5ace810184905594517f405787fa12a823e0f2b7631cc41b3ba8828b3321ca811111fa75cd3aa3bb5acf860181905593517f405787fa12a823e0f2b7631cc41b3ba8828b3321ca811111fa75cd3aa3bb5ad0860181905591517f405787fa12a823e0f2b7631cc41b3ba8828b3321ca811111fa75cd3aa3bb5ad1860181905590517f405787fa12a823e0f2b7631cc41b3ba8828b3321ca811111fa75cd3aa3bb5ad2909501859055955194957f519f8bffd327b774b2e6c104d83cdf5f1526d480d3acc25ccd8abae55e4f627295611d179593949390948552602085019390935260408401919091526060830152608082015260a00190565b600080611ef28484610fa9565b90506000805b825181101561114c576000838281518110611f1557611f15613776565b60200260200101519050611f298782610c7c565b611f3390846137e3565b9250508080611f41906137f6565b915050611ef8565b600260035403611f6b5760405162461bcd60e51b8152600401610afc906138b7565b60026003556000611f7b33612478565b905060008060005b835181101561204a576000848281518110611fa057611fa0613776565b60200260200101519050611fb381613332565b1561203757600060078281548110611fcd57611fcd613776565b6000918252602090912060049091020180549091506001600160a01b03163314611ff657600080fd5b6000612001836123cd565b90508082600101546120139190613848565b61201d90876137e3565b955061202981866137e3565b945042826003018190555050505b5080612042816137f6565b915050611f83565b5061205581836137e3565b600560008282546120669190613848565b90915550612076905081836137e3565b3360009081526006602052604081208054909190612095908490613848565b90915550506004546001600160a01b031663095ea7b3306120b684866137e3565b6040516001600160e01b031960e085901b1681526001600160a01b03909216600483015260248201526044016020604051808303816000875af1158015612101573d6000803e3d6000fd5b505050506040513d601f19601f82011682018060405250810190612125919061385b565b50600480546040516323b872dd60e01b81526001600160a01b03909116916323b872dd91612159913091339188910161387d565b6020604051808303816000875af1158015612178573d6000803e3d6000fd5b505050506040513d601f19601f8201168201806040525081019061219c919061385b565b50801561221f5760048054600b546040516323b872dd60e01b81526001600160a01b03928316936323b872dd936121da93309391169187910161387d565b6020604051808303816000875af11580156121f9573d6000803e3d6000fd5b505050506040513d601f19601f8201168201806040525081019061221d919061385b565b505b7fbe7426aee8a34d0263892b55ce65ce81d8f4c806eb4719e59015ea49feb92d223361224b83856137e3565b604080516001600160a01b03909316835260208301919091520160405180910390a15050600160035550565b6002818154811061228757600080fd5b6000918252602090912060059091020180546001820154600283015460038401546004909401549294509092909185565b60009182526001602090815260408084206001600160a01b0393909316845291905290205460ff1690565b60006122ee81613328565b60006122fa8347613848565b10156123605760405162461bcd60e51b815260206004820152602f60248201527f45524332305374616b696e673a2072657363756520616d6f756e74206774206360448201526e6f6e74726163742062616c616e636560881b6064820152608401610afc565b61236a338361320f565b81600c541061238b5781600c60008282546123859190613848565b90915550505b6040518281527f103add520cfd30dd0ad5e069258f06d08bc373a5079338aacf71cd52aa2b969f906020016114ea565b60006123c6826126ec565b5192915050565b600080600090506000600784815481106123e9576123e9613776565b6000918252602080832060408051608081018252600490940290910180546001600160a01b0316845260018101549284019290925260028201549083018190526003909101546060830152600a5491935061244491906137e3565b90504281111561246f5760646009548360200151612462919061380f565b61246c9190613826565b92505b50909392505050565b604080516000808252602082019092526060915b6007548110156125ef576000600782815481106124ab576124ab613776565b600091825260209182902060408051608081018252600490930290910180546001600160a01b03908116808552600183015495850195909552600282015492840192909252600301546060830152909250861690036125dc5760008351600161251491906137e3565b67ffffffffffffffff81111561252c5761252c6138a1565b604051908082528060200260200182016040528015612555578160200160208202803683370190505b50905060005b84518110156125ad5784818151811061257657612576613776565b602002602001015182828151811061259057612590613776565b6020908102919091010152806125a5816137f6565b91505061255b565b508281600183516125be9190613848565b815181106125ce576125ce613776565b602090810291909101015292505b50806125e7816137f6565b91505061248c565b5092915050565b600080805b6007548110156112905761260e81613332565b612620578161261c816137f6565b9250505b8061262a816137f6565b9150506125fb565b600061263e8383610fa9565b519392505050565b6007818154811061265657600080fd5b600091825260209091206004909102018054600182015460028301546003909301546001600160a01b039092169350919084565b6000808061269784612478565b905060005b815181101561246f5760008282815181106126b9576126b9613776565b602002602001015190506126cc816123cd565b6126d690856137e3565b93505080806126e4906137f6565b91505061269c565b606060006002838154811061270357612703613776565b600091825260208083206040805160a081018252600594909402909101805484526001810154848401526002810154848301526003810154606085015260040154608084015280518481529182019052909250905b600754811015610f765760006007828154811061277757612777613776565b600091825260209182902060408051608081018252600490930290910180546001600160a01b031683526001810154938301939093526002830154828201819052600390930154606083015286015190925011156128cd576127d882613332565b806127f057506127f08160600151856040015161359c565b156128cd5760008351600161280591906137e3565b67ffffffffffffffff81111561281d5761281d6138a1565b604051908082528060200260200182016040528015612846578160200160208202803683370190505b50905060005b845181101561289e5784818151811061286757612867613776565b602002602001015182828151811061288157612881613776565b602090810291909101015280612896816137f6565b91505061284c565b508281600183516128af9190613848565b815181106128bf576128bf613776565b602090810291909101015292505b50806128d8816137f6565b915050612758565b60006128eb81613328565b62278d008211156129645760405162461bcd60e51b815260206004820152603760248201527f45524332305374616b696e673a2046656520636c696666206d7573742062652060448201527f6c657373207468616e204d41585f4645455f434c4946460000000000000000006064820152608401610afc565b600a8290556040518281527fbd3066e2ccda31ec23384fe9a58df9a279da04215205a68b3c5dfd8ae6eecf7f906020016114ea565b600254839081106129f65760405162461bcd60e51b815260206004820152602160248201527f526f756e64436f6e74726f6c3a20726f756e6420646f65736e277420657869736044820152601d60fa1b6064820152608401610afc565b6000612a0181613328565b8415612a985760006002612a16600188613848565b81548110612a2657612a26613776565b90600052602060002090600502016040518060a001604052908160008201548152602001600182015481526020016002820154815260200160038201548152602001600482015481525050905080604001518511612a965760405162461bcd60e51b8152600401610afc90613907565b505b6000612aa484866137e3565b600254909150612ab690600190613848565b861015612ba45760006002612acc8860016137e3565b81548110612adc57612adc613776565b90600052602060002090600502016040518060a001604052908160008201548152602001600182015481526020016002820154815260200160038201548152602001600482015481525050905080600001518210612ba25760405162461bcd60e51b815260206004820152603a60248201527f526f756e64436f6e74726f6c3a2063616e277420656e6420726f756e6420616660448201527f746572206e65787420726f756e642068617320737461727465640000000000006064820152608401610afc565b505b600060028781548110612bb957612bb9613776565b6000918252602091829020600590910201878155600181018790556002810184905560038101546004820154604080518b81529485018a905284018690526060840191909152608083015291507f153be7fffad81a448dd72e351b477e835c58cd4a84a052a997ae5e31bdc5b6319060a00160405180910390a150505050505050565b60008281526001602081905260409091200154612c5881613328565b610fa483836133cf565b600260035403612c845760405162461bcd60e51b8152600401610afc906138b7565b6002600381905550600080600060078481548110612ca457612ca4613776565b6000918252602090912060049091020180549091506001600160a01b03163314612ccd57600080fd5b6000612cd8856123cd565b9050808260010154612cea9190613848565b612cf490856137e3565b9350612d0081846137e3565b4260038401559250612d1283856137e3565b60056000828254612d239190613848565b90915550612d33905083856137e3565b3360009081526006602052604081208054909190612d52908490613848565b90915550506004546001600160a01b031663095ea7b330612d7386886137e3565b6040516001600160e01b031960e085901b1681526001600160a01b03909216600483015260248201526044016020604051808303816000875af1158015612dbe573d6000803e3d6000fd5b505050506040513d601f19601f82011682018060405250810190612de2919061385b565b50600480546040516323b872dd60e01b81526001600160a01b03909116916323b872dd91612e1691309133918a910161387d565b6020604051808303816000875af1158015612e35573d6000803e3d6000fd5b505050506040513d601f19601f82011682018060405250810190612e59919061385b565b508215612edc5760048054600b546040516323b872dd60e01b81526001600160a01b03928316936323b872dd93612e9793309391169189910161387d565b6020604051808303816000875af1158015612eb6573d6000803e3d6000fd5b505050506040513d601f19601f82011682018060405250810190612eda919061385b565b505b7fbe7426aee8a34d0263892b55ce65ce81d8f4c806eb4719e59015ea49feb92d2233612f0885876137e3565b604080516001600160a01b03909316835260208301919091520160405180910390a150506001600355505050565b6000612f4181613328565b600b80546001600160a01b0319166001600160a01b0384169081179091556040519081527fffb40bfdfd246e95f543d08d9713c339f1d90fa9265e39b4f562f9011d7c919f906020016114ea565b600080612f9c8484610fa9565b90506000805b825181101561114c576000838281518110612fbf57612fbf613776565b60200260200101519050612fd38782611d3a565b612fdd90846137e3565b9250508080612feb906137f6565b915050612fa2565b612ffb613456565b6001600160a01b0381166130605760405162461bcd60e51b815260206004820152602660248201527f4f776e61626c653a206e6577206f776e657220697320746865207a65726f206160448201526564647265737360d01b6064820152608401610afc565b613069816134b0565b50565b6060600061307b83600261380f565b6130869060026137e3565b67ffffffffffffffff81111561309e5761309e6138a1565b6040519080825280601f01601f1916602001820160405280156130c8576020820181803683370190505b509050600360fc1b816000815181106130e3576130e3613776565b60200101906001600160f81b031916908160001a905350600f60fb1b8160018151811061311257613112613776565b60200101906001600160f81b031916908160001a905350600061313684600261380f565b6131419060016137e3565b90505b60018111156131b9576f181899199a1a9b1b9c1cb0b131b232b360811b85600f166010811061317557613175613776565b1a60f81b82828151811061318b5761318b613776565b60200101906001600160f81b031916908160001a90535060049490941c936131b28161395b565b9050613144565b5083156132085760405162461bcd60e51b815260206004820181905260248201527f537472696e67733a20686578206c656e67746820696e73756666696369656e746044820152606401610afc565b9392505050565b8047101561325f5760405162461bcd60e51b815260206004820152601d60248201527f416464726573733a20696e73756666696369656e742062616c616e63650000006044820152606401610afc565b6000826001600160a01b03168260405160006040518083038185875af1925050503d80600081146132ac576040519150601f19603f3d011682016040523d82523d6000602084013e6132b1565b606091505b5050905080610fa45760405162461bcd60e51b815260206004820152603a60248201527f416464726573733a20756e61626c6520746f2073656e642076616c75652c207260448201527f6563697069656e74206d617920686176652072657665727465640000000000006064820152608401610afc565b61306981336135b4565b60006000196007838154811061334a5761334a613776565b906000526020600020906004020160030154149050919050565b61336e82826122b8565b6111cf5760008281526001602081815260408084206001600160a01b0386168086529252808420805460ff19169093179092559051339285917f2f8788117e7eff1d82e926ec794901d17c78024a50270940304540a733656f0d9190a45050565b6133d982826122b8565b156111cf5760008281526001602090815260408083206001600160a01b0385168085529252808320805460ff1916905551339285917ff6391f5c32d9c69d2a47ea670b442974b53935d1edc7fd64eb21e047a839171b9190a45050565b600083821015613444578391505b61344e8284613848565b949350505050565b6000546001600160a01b03163314611d385760405162461bcd60e51b815260206004820181905260248201527f4f776e61626c653a2063616c6c6572206973206e6f7420746865206f776e65726044820152606401610afc565b600080546001600160a01b038381166001600160a01b0319831681178455604051919092169283917f8be0079c531659141344cd1fd0a4f28419497f9722a3daafe3b4186f6b6457e09190a35050565b6002541561306957600280546000919061351c90600190613848565b8154811061352c5761352c613776565b90600052602060002090600502016040518060a0016040529081600082015481526020016001820154815260200160028201548152602001600382015481526020016004820154815250509050806040015182116111cf5760405162461bcd60e51b8152600401610afc90613907565b60008183118015613208575060001983109392505050565b6135be82826122b8565b6111cf576135d6816001600160a01b0316601461306c565b6135e183602061306c565b6040516020016135f2929190613996565b60408051601f198184030181529082905262461bcd60e51b8252610afc91600401613a0b565b60006020828403121561362a57600080fd5b81356001600160e01b03198116811461320857600080fd5b60006020828403121561365457600080fd5b5035919050565b6000806040838503121561366e57600080fd5b50508035926020909101359150565b80356001600160a01b038116811461369457600080fd5b919050565b600080604083850312156136ac57600080fd5b823591506136bc6020840161367d565b90509250929050565b6020808252825182820181905260009190848201906040850190845b818110156136fd578351835292840192918401916001016136e1565b50909695505050505050565b60006020828403121561371b57600080fd5b6132088261367d565b6001600160a01b0394909416845260208401929092526040830152606082015260800190565b60008060006060848603121561375f57600080fd5b505081359360208301359350604090920135919050565b634e487b7160e01b600052603260045260246000fd5b60208082526021908201527f45524332305374616b696e673a20726f756e6420686173206e6f7420656e64656040820152601960fa1b606082015260800190565b634e487b7160e01b600052601160045260246000fd5b80820180821115610aae57610aae6137cd565b600060018201613808576138086137cd565b5060010190565b8082028115828204841417610aae57610aae6137cd565b60008261384357634e487b7160e01b600052601260045260246000fd5b500490565b81810381811115610aae57610aae6137cd565b60006020828403121561386d57600080fd5b8151801515811461320857600080fd5b6001600160a01b039384168152919092166020820152604081019190915260600190565b634e487b7160e01b600052604160045260246000fd5b6020808252601f908201527f5265656e7472616e637947756172643a207265656e7472616e742063616c6c00604082015260600190565b60006020828403121561390057600080fd5b5051919050565b60208082526034908201527f526f756e64436f6e74726f6c3a2063616e277420737461727420726f756e64206040820152736265666f72652070726576696f757320656e647360601b606082015260800190565b60008161396a5761396a6137cd565b506000190190565b60005b8381101561398d578181015183820152602001613975565b50506000910152565b7f416363657373436f6e74726f6c3a206163636f756e74200000000000000000008152600083516139ce816017850160208801613972565b7001034b99036b4b9b9b4b733903937b6329607d1b60179184019182015283516139ff816028840160208801613972565b01602801949350505050565b6020815260008251806020840152613a2a816040850160208701613972565b601f01601f1916919091016040019291505056fea26469706673582212206d2e2fcf480f96aff9440c7e8ad91435a2eae83d440fd94b2c549c7ee078b4e264736f6c63430008110033",
  "linkReferences": {},
  "deployedLinkReferences": {}
}